:020000040800F2
:10000000200B0024AD02000803570008B954000873
:1000100001570008BF0800086D63000800000000D9
:100020000000000000000000000000004959000826
:10003000BD0F000800000000055700084B590008DC
:10004000CB020008CB020008CB020008CB0200085C
:10005000CB020008CB020008CB020008CB0200084C
:10006000CB020008CB020008CB020008CB0200083C
:10007000CB020008CB020008CB020008CB0200082C
:10008000CB020008CB020008CB020008CB0200081C
:10009000CB020008CB020008CB020008CB0200080C
:1000A000CB020008CB020008CB020008CB020008FC
:1000B000CB020008CB020008CB020008CB020008EC
:1000C000CB020008CB020008CB020008CB020008DC
:1000D000CB02000861630008CB020008CB020008D5
:1000E000CB020008CB02000800000000CB02000891
:1000F000CB020008CB020008CB020008CB020008AC
:10010000CB020008CB020008CB020008CB0200089B
:10011000CB020008CB020008CB020008CB0200088B
:100120006D0B0008790B0008CB020008CB02000819
:10013000CB020008CB020008CB020008CB0200086B
:1001400000000000000000000000000000000000AF
:10015000CB020008CB020008CB020008CB0200084B
:10016000CB020008CB020008CB020008CB0200083B
:10017000CB020008CB020008CB0200080000000000
:10018000CB020008CB020008CB020008CB0200081B
:10019000CB020008CB020008CB020008CB0200080B
:1001A000CB020008CB020008CB020008CB020008FB
:1001B000CB020008CB020008CB020008CB020008EB
:1001C000CB020008CB020008CB020008CB020008DB
:1001D000CB020008CB020008CB020008CB020008CB
:1001E000CB020008CB020008CB020008CB020008BB
:1001F000CB020008CB020008CB020008CB020008AB
:10020000CB020008CB020008CB020008CB0200089A
:10021000CB020008CB020008CB020008CB0200088A
:10022000CB020008CB020008CB020008000000004F
:10023000CB020008CB02000800000000CB0200083F
:10024000CB020008CB020008CB020008CB0200085A
:10025000CB020008CB020008CB020008CB0200084A
:10026000CB020008CB020008CB020008CB0200083A
:10027000CB020008CB020008CB02000800000000FF
:10028000CB020008CB020008CB02000800000000EF
:1002900000000000CB020008DFF80CD000F08EFA5E
:1002A00000480047B16F0008200B00240748804732
:1002B0000748804707480047FEE7FEE7FEE7FEE7FE
:1002C000FEE7FEE7FEE7FEE7FEE7FEE7791000083F
:1002D000FD590008990200082DE9F05F054600204D
:1002E00092469B4688460646814640241BE02846A7
:1002F00041464746224600F069F853465A46C01A1E
:10030000914110D311461846224600F050F82D1A9C
:1003100067EB01084F4622460120002100F047F814
:1003200017EB00094E41201EA4F10104DFDC484612
:1003300031462A464346BDE8F09F40EA01039B0749
:1003400003D009E008C9121F08C0042AFAD203E04A
:1003500011F8013B00F8013B521EF9D27047D2B2AE
:1003600001E000F8012B491EFBD270470022F6E79E
:1003700010B513460A4604461946FFF7F0FF20461B
:1003800010BD30B50B46014600202022012409E0B3
:1003900021FA02F59D4205D303FA02F5491B04FA3E
:1003A00002F52844151EA2F10102F1DC30BD202A1D
:1003B00004DB203A00FA02F1002070479140C2F1BC
:1003C000200320FA03F3194390407047202A04DBEE
:1003D000203A21FA02F00021704721FA02F3D040BE
:1003E000C2F1200291400843194670472DE9FE4FA3
:1003F000804681EA0300C00F0C46009021F00041C6
:1004000023F00045B8EB0200A94105D24046214641
:1004100090461C460B46024623F00040104347D04E
:10042000270DC7F30A00C3F30A510290401A019046
:1004300040286BDAC3F3130040F4801B0098924607
:1004400020B10023D2EB030A63EB0B0B0198594652
:10045000C0F140025046FFF7AAFF06460D4650463F
:100460005946019A00F0BCF910EB080061410024E4
:1004700087EA115284EAE7731A4340D0009A62B3C4
:10048000019A012A4FEA075215DC001B61EB0201B9
:100490004FF0004202EA0752CDE90042001C41F54C
:1004A000801132462B4600F0BCF903B0BDE8F08F56
:1004B00040462146F9E7001B61EB0201001C41F5B3
:1004C000801300185B412018A2F5001747EB0301C9
:1004D00040EAD570B6196D4111E06D084FEA360655
:1004E00045EAC0754FEA0752001B61EB0201001C90
:1004F00041F5801149084FEA300000195141324658
:100500002B4603B0BDE8F04F00F07CB90098012203
:1005100040000023D0EB020263EBE0730098214619
:100520004FEAE074B8EB000061EB0401E9E783F007
:1005300000435BE781F0004158E72DE9FE4F81EA77
:10054000030404F0004421F0004100944FF0000B3C
:1005500023F0004350EA01045ED052EA03045BD06A
:10056000C3F30A54C1F30A552C44A4F2F3340194A2
:10057000A0FB0254C1F3130141F48011C3F3130330
:1005800043F4801301FB024400FB034E840A970AE4
:1005900044EA815447EA8357A4FB076802958D0A11
:1005A00005FB07854FEA932C04FB0C542705029D9D
:1005B0004FEA065847EA1637B5EB08056EEB070C0D
:1005C000870E920E47EA811742EA8312A7FB0201C7
:1005D000B6EB0B0164EB00042B0D43EA0C335E1801
:1005E00044EB1C50DA465146E7FB0201C5F3130405
:1005F0004FEA0B3343EA14534FEA0432019C43EAB7
:100600000603A4F10C040294009CCDE900B400F0B0
:1006100008F903B0BDE8F08F00200146F9E72DE9A5
:10062000F04D81EA030404F0004B21F0004514462C
:100630004FF0000A23F0004150EA050220D054EAAE
:1006400001021DD0C5F30A570246C5F31303C1F3D7
:100650001300C1F30A5640F4801543F48013A7EB4E
:100660000608101BD64608F2FD3873EB050002D3CE
:1006700008F1010801E092185B41B8F1000F03DABC
:1006800000200146BDE8F08D00204FF480110646A1
:1006900084460EE0171B73EB050705D3121B63EBB3
:1006A000050306434CEA010C49084FEA3000921852
:1006B0005B4150EA0107EDD152EA030012D082EA11
:1006C000040083EA0501084305D0101BAB4106D2A4
:1006D0000122002306E000224FF0004302E06FF009
:1006E000010253101AEB06004CEB085110EB0A0004
:1006F00041EB0B01BDE8F04D00F084B8C1F30A52A4
:10070000C1F3130140F2FF3341F480119A4202DA3F
:1007100000200146704740F233439A42A2F233422E
:1007200002DC5242FFF752BEFFF741BE30B5041E55
:1007300071F1000404DB4FF00044404264EB01011E
:10074000141E73F1000405DB1C464FF000435242B7
:1007500063EB0403994208BF904230BD70B5044674
:1007600001F000450020054304D14FF000456442EC
:1007700065EB010103F00045284305D118464FF011
:100780000043524263EB0003101B73EB010002D2E3
:100790004FF0004009E082EA040283EA01034FF0CF
:1007A00000501A4301D14FF0C0404FEA2062EFF3EE
:1007B000008162F31F6181F3008870BD064C074D14
:1007C00006E0E06840F0010394E807009847103421
:1007D000AC42F6D3FFF764FD4C7600086C76000857
:1007E000202A06DBCB17203A41FA02F043EAE073F5
:1007F00006E041FA02F3D040C2F1200291400843E2
:100800001946704710B5141E73F1000408DA401C35
:1008100041F1000192185B411A4301D120F001001F
:1008200010BD2DE9F04D92469B4611B1B1FA81F20F
:1008300002E0B0FA80F220329046FFF7B8FD04469D
:100840000F4640EA0A0041EA0B0153465A46084364
:1008500013D0114653EA010019D0C8F140025046A6
:10086000FFF7B4FD05460E46504659464246FFF78F
:100870009EFD084305D0012004E020463946BDE82E
:10088000F08D0020054346EAE0762C4337430A9872
:100890006305E40AA0EB08000022FD0A44EA47547D
:1008A0000A3002D500200146E9E701051019694127
:1008B000DDE9084500196941BDE8F04DA2E7FEE712
:1008C00030B5002308E000BF01EB830504682D6804
:1008D0004FEA354525605B1CB3EB520FF4D3D207CA
:1008E00003D0026831F8231011800068006830BD21
:1008F000F0B500230BE000BF01EB83040568266818
:10090000E77834BA24F0FF043C432C605B1CB3EB63
:10091000920FF1D394071BD002F00304012C03D1F2
:10092000056811F823602E70022C05D101EB8304B9
:100930000568248864BA2C80D243920708D101EB61
:1009400083020368118849BA19809178026811708E
:1009500000680068F0BD000070B50A4DE86F01F056
:1009600037FA002407E0012002F0DAF8641CE86F8F
:10097000E4B201F02DFA012802D0642CF3D3002058
:1009800070BD0000D003002470B5224C207B0528E8
:1009900009D021A006F0F4FA207B0325042804D016
:1009A00001280AD020E026A02FE032A006F0E8FAC5
:1009B0002573BDE8704006F0FBBD616839A006F004
:1009C000DFFA606806F02EFA30B10420207306F0DA
:1009D000EFFD04F013FE0FE03CA006F0D1FA257302
:1009E0000020606106F0E4FD606806F01BFA6168B3
:1009F00038B140A006F0C4FA6068BDE8704004F069
:100A000069BD44A006F0BCFA4BA0BDE8704006F0FA
:100A1000B7BA000010000024436865636B696E6715
:100A2000206170707320286865616465722F43527D
:100A30004320656E61626C6564290D0A0000000048
:100A4000426F6F742D7570207570677261646520D8
:100A5000696E2070726F67726573732E20537461B4
:100A60007920696E20626F6F746C6F616465722E9D
:100A70000D0A000050726576696F75732041505001
:100A800020636865636B2074696D6564206F75749D
:100A90002E204D61726B696E67206661696C6564BA
:100AA0002E0D0A0050656E64696E67207570646172
:100AB00074652073746174652073657420666F7249
:100AC000203078253038580D0A00000050656E64DB
:100AD000696E672061707020696E76616C69642E42
:100AE000204D61726B696E67206661696C65642E6A
:100AF0000D0A00004163746976652041505020431F
:100B00006865636B204F4B3A203078253038580D9C
:100B10000A0000004163746976652041505020430B
:100B20006865636B204661696C65643A203078259E
:100B30003038580D0A0000004E6F2076616C6964F1
:100B4000206170706C69636174696F6E20666F7587
:100B50006E642E205374617920696E20626F6F7409
:100B60006C6F616465722E0D0A000000014801F08F
:100B700033B90000F8040024014801F02DB9000049
:100B800070050024294A016891423AD0274A183258
:100B9000914236D0254A3032914232D0234A4832EF
:100BA00091422ED0214A603291422AD01F4A783297
:100BB000914226D01D4A9032914222D01B4AA8323F
:100BC00091421ED01A4A91421BD0194A18329142C2
:100BD00017D0174A3032914213D0154A4832914209
:100BE0000FD0134A603291420BD0114A78329142B1
:100BF00007D00F4A9032914203D00D4AA832914259
:100C000011D1CAB21823103AB2FBF3F26FF3090103
:100C1000032A02F00703074AD25CC26500D9091D06
:100C200081650846704721F0FF01F9E71000024096
:100C3000100402400C76000830B5224A01230168F6
:100C40009142CAB21BD01F4C1434A14217D01D4C84
:100C50002834A14213D01B4C3C34A1420FD0194C74
:100C60005034A1420BD0174C6434A14207D0154C2C
:100C70007834A14203D0134C8C34A1420CD11421FE
:100C8000114C083AB2FBF1F10F4A803201F01F0516
:100C900004EB8101AB4010E00C4D1824103A0D44D8
:100CA000B2FBF4F1A82D00D80831094A01F01F0465
:100CB00002EB8101064AA3408032603080E80E00DA
:100CC00030BD00000854025800580258F0FBFDBF28
:100CD0000008024010B50279531E072B2DD8174C7F
:100CE0000168A1421BD0154C1434A14217D0134CFB
:100CF0002834A14213D0114C3C34A1420FD00F4CE8
:100D00005034A1420BD00D4C6434A14207D00B4C9F
:100D10007834A14203D0094C8C34A14203D1084954
:100D2000074C443102E00749064C443104EB82028F
:100D3000C0E91B2101219940416710BD08540258A8
:100D4000FC580258FC08024010B583694FF0C0748B
:100D5000826A0146002053B1B3F5005F15D072B12D
:100D6000012A0CD0022A0AD0032A09D104E01AB1C0
:100D7000012A06D0022A03D1C96AC90100D501207F
:100D800010BDC96AA142FAD010BD002AF7D0012ACD
:100D9000F2D0022AF3D0032AF3D010BD2DE9F04F90
:100DA000804E804FDFF8FC911836DFF8F8A1483705
:100DB0000468856D0AF1300ADFF8ECB14C45DFF8C4
:100DC000ECC1DFF8ECE16DD0B4426BD0544569D092
:100DD000BC4267D0DFF8D081A8F11808444561D043
:100DE0005C455FD064455DD074455BD0DFF8C4815D
:100DF000444557D0DFF8BC8108F11808444551D06C
:100E0000DFF8B08108F1300844454BD0DFF8A48109
:100E100008F14808444545D0DFF8988108F160089A
:100E200044453FD0DFF88C8108F17808444539D03B
:100E3000DFF8808108F19008444533D0DFF87481F1
:100E400008F1A80844452DD0DFF86C81444529D02D
:100E5000DFF8648108F11408444523D0DFF8588195
:100E600008F1280844451DD0DFF84C8108F13C0802
:100E7000444517D0DFF8408108F15008444511D0AF
:100E8000DFF8348108F1640844450BD0DFF828818D
:100E900008F17808444505D0DFF81C8108F18C087A
:100EA000444509D1D0E91948C4F80480C46E1CB186
:100EB000D0E91C48C4F8048004684C452ED0B442E4
:100EC0002CD054452AD0BC4228D0374E183EB442CC
:100ED00024D05C4522D0644520D074451ED0354EC8
:100EE000B4421BD0334E1836B44217D0314E303690
:100EF000B44213D02F4E4836B4420FD02D4E603638
:100F0000B4420BD02B4E7836B44207D0294E9036DF
:100F1000B44203D0274EA836B44215D190F85C6095
:100F20003F2406F01F06B440AC600468256825F431
:100F3000802525602EE09A600068C160BDE8F08FD2
:100F400099600068C260F9E71B4EB4421BD01A4E8C
:100F50001436B44217D0184E2836B44213D0164E69
:100F60003C36B4420FD0144E5036B4420BD0124E21
:100F70006436B44207D0104E7836B44203D00E4ED9
:100F80008C36B442DAD190F85C60012406F01F067A
:100F9000B4406C60046863608368402B0368CFD101
:100FA000C9E700001000024088000240A000024093
:100FB000B800024010040240085402587047000074
:100FC00028494FF4967210B501F5967003F042FE71
:100FD00025482649006888423AD024491831884279
:100FE00036D022493031884232D0204948318842B7
:100FF0002ED01E49603188422AD01C49783188425F
:1010000026D01A499031884222D01849A831884206
:101010001ED0174988421BD015491831884217D075
:1010200013493031884213D01149483188420FD0DA
:101030000F49603188420BD00D497831884207D082
:101040000B499031884203D00949A831884203D125
:10105000016821F0080102E0016821F0040101604B
:1010600010BD0000A4020024F80400241000024077
:101070001004024072B6FEE70548054908390268C7
:1010800042F00202026008688004FCD5704700004C
:101090000C48025830B587B005460024009400F093
:1010A00073F901460120B5F1016FCDE9021000D3BB
:1010B0000220059405A90190684601F043FD07B0A0
:1010C00030BD000030B584240D4BCD0744EA00202C
:1010D00007D0DC6824F4E664DC60DC681443044375
:1010E000DC6089070BD5D3F80C1121F4E661C3F855
:1010F0000C11D3F80C1111430143C3F80C1130BD8E
:1011000000200052CB431D4A9B0720D0CB070AD0BA
:10111000D36823F03003D360D3680343D360D3682C
:1011200043F08803D360890710D5D2F80C1121F061
:101130003001C2F80C11D2F80C110143C2F80C11A5
:10114000D2F80C0140F08800C2F80C017047D16859
:1011500021F03001D160D2F80C1121F03001C2F839
:101160000C11D1680143D160D2F80C110143C2F8CF
:101170000C11906940F010009061704700200052FF
:10118000002A10B509D0002305E000BF10F8014B7C
:101190005B1C01F8014B9342F8D310BD2DE9F047D9
:1011A00004250E46804601F0C5FF022E814600D17F
:1011B000274DDFF8A0A0284C05EA0A0777B3D4F83A
:1011C000100125EA00004000D0B1012E2AD02349A9
:1011D000D4F81001084040F00040410026D02049DA
:1011E0008A6910EA0A0F42EA00028A6101D160614D
:1011F00003E020F00040C4F814010120BDE8F087AE
:10120000B8F1FF3FDAD001F095FFA0EB09014145AD
:1012100002D8B8F1000FD1D10320EFE7206925EA09
:101220000000D1E70F4920690840D6E7012E4FF4AE
:10123000803007D0D4F81011C90301D5C4F81401C7
:101240000020DBE72169C903FAD56061F8E70000F7
:1012500004000080F0FF10E0002000520000EE9734
:10126000040700240000EE172DE9F04188B016466F
:101270000F468046012080F31088002501F064FDB0
:101280004FF0FF3420B1002080F3108825462EE077
:10129000404604F012F930B14046FFF7FBFE10B1B2
:1012A00001F0DAFCEFE700241FE020216846FFF799
:1012B0005DF8301B00EE100AB8EEC01B9FED130B5B
:1012C00005F0F6F8BCEEC00B3919684610EE102A8E
:1012D000FFF733F801206A4608EB040101F0D4FC63
:1012E00010B16FF0010502E02034A642DDDC01F010
:1012F000B3FC18B1002080F31088C51E002080F3D5
:10130000108808B02846BDE8F08100000000000009
:10131000000040402DE9F041002406464AF6AA2785
:101320004FEA04052DED028B9FED148B06EB441064
:10133000006881B2B94216D1000C2546001D00EEAE
:10134000100AB8EE400B20EE080B05F039F801EE5C
:10135000104AB8EE411B30EE010BBCEEC00B10EE94
:10136000100A84B2E2E7074806EB451206EB441187
:10137000C0E90012BDEC028BBDE8F0810000000066
:101380000000A03F000000240021A0F100634FF402
:101390000032934245D3A0F10163934241D32249E5
:1013A0000144914203D321490144914201D20121D8
:1013B00037E01F490144914203D31E490144914241
:1013C00001D202212DE01C490144914203D31B4963
:1013D0000144914201D2032123E019490144914281
:1013E00003D318490144914201D2042119E016495E
:1013F0000144914203D315490144914201D2052190
:101400000FE013490144914203D312490144914230
:1014100001D2062105E010490144914200D30F4951
:1014200007210846704700000000FEF70000EEF7B5
:101430000000FCF70000ECF70000FAF70000EAF704
:101440000000F8F70000E8F70000F6F70000E6F704
:101450000000F4F70000E4F70000F2F700001E08B7
:10146000F0B50446C8074FF0000010D01E23012637
:1014700003F01F0706FA07F50D4201D15B1EF7D2F4
:101480007AB1082A0BD0102A06D0182A01D00120E0
:10149000F0BD072BFBD204E0082BF8D201E0102BA3
:1014A000F5D22368596121688B6823F01803134330
:1014B0008B60F0BD70B50446036A0220607700209F
:1014C000012B0FD0022B11D0032B12D105E000BF4E
:1014D000236851F820501D60401C9042F8D32068CA
:1014E000006806E02046FFF703FA02E02046FFF717
:1014F000E7F90121617770BD70B50446022060777D
:10150000002023689D6845F001059D60236A012B3A
:101510000ED0022B10D0032B11D104E0236851F818
:1015200020501D60401C9042F8D32068006806E0FF
:101530002046FFF7DDF902E02046FFF7C1F901215F
:10154000617770BD10B5040010D0607F20B9002015
:101550002077204600F040F821790220607739B1E9
:10156000D4E902122046FFF77BFF48B1012010BDED
:101570002168114848612068816821F01801816064
:101580006079A0B12168206908610122206863693F
:10159000816821F06001194381602068A369816836
:1015A00021F08001194381606277002010BD21681D
:1015B0004FF0FF30E8E70000B71DC10400680449A0
:1015C000884204D10348016821F40021016070477A
:1015D000004C0258E044025808B5006806498842A9
:1015E00008D10648016841F400210160006800F458
:1015F0000020009008BD0000004C0258E044025852
:101600002DE9F84F044601F095FD00903CB194F8A7
:101610003500022806D0802161650020E4E0012029
:10162000BDE8F88FC74DC74EC6491835206830361B
:10163000DFF81483DFF814938842DFF814A3DFF88F
:1016400014B32ED0A8422CD0B0422AD0404528D086
:10165000484526D0504524D0584522D0BD4A18329E
:1016600090421ED0BC4A90421BD0BB4A18329042D6
:1016700017D0B94A3032904213D0B74A483290421C
:101680000FD0B54A603290420BD0B34A78329042C4
:1016900007D0B14A9032904203D0AF4AA83290426C
:1016A00009D1026822F01E0202602068426922F01D
:1016B0008002426103E0026822F00E0202602768A5
:1016C0008F4238464DD0A8424BD0B04249D0404519
:1016D00047D0484545D0504543D0584541D09D4A14
:1016E000183290423DD09C4A90423AD09A4A1832E1
:1016F000904236D0984A3032904232D0964A4832A0
:1017000090422ED0944A603290422AD0924A783247
:10171000904226D0904A9032904222D08E4AA832EF
:1017200090421ED08D4A90421BD08C4A1432904277
:1017300017D08A4A2832904213D0884A3C329042CD
:101740000FD0864A503290420BD0844A6432904285
:1017500007D0824A7832904203D0804A8C32974236
:1017600004D1206E026822F48072026075492068FC
:10177000884228D0A84226D0B04224D0404522D06A
:10178000484520D050451ED058451CD071491831CD
:10179000884218D07049884215D06F491831884264
:1017A00011D06D49303188420DD06B4948318842A3
:1017B00009D069496031884205D06749783188424B
:1017C00001D065499031016821F0010101600EE00E
:1017D00001F0B0FC0099401A052808D92022626562
:1017E0000321002084F8351084F8340017E73868A6
:1017F000C007EDD1534A0121206890422ED0A84263
:101800002CD0B0422AD0404528D0484526D050455B
:1018100024D0584522D04F4B183398421ED04E4BFF
:1018200098421BD04C4B1833984217D04A4B303358
:10183000984213D0484B483398420FD0464B603300
:1018400098420BD0444B7833984207D0424B9033A8
:10185000984203D0404BA833984208D194F85C706A
:101860003F23A06D07F01F07BB40836007E094F89B
:101870005C30A06D03F01F0301FA03F3436020689E
:1018800090424DD0A8424BD0B04249D0404547D0BD
:10189000484545D0504543D0584541D02D4A18328F
:1018A00090423DD02C4A90423AD02B4A1832904276
:1018B00036D0294A3032904232D0274A48329042BC
:1018C0002ED0254A603290422AD0234A7832904264
:1018D00026D0214A9032904222D01F4AA83290420C
:1018E0001ED01E4A90421BD01C4A1432904217D080
:1018F0001A4A2832904213D0184A3C3290420FD0F4
:10190000164A503290420BD0144A6432904207D0AB
:10191000124A7832904203D0104A8C3290420BD156
:10192000D4E919024260E06E30B1026822F480729C
:101930000260D4E91C024260002084F8351084F86B
:1019400034006DE610000240580002407000024072
:1019500088000240A00002401004024008540258CF
:101960002DE9F05F28B190F83510022904D08021CC
:1019700041650120BDE8F09F904C904B0168183CF8
:1019800018338E4ADFF83C92A1428D4CDFF838E2E2
:101990008E4FDFF83CB2DFF83CA28F4D8F4E31D036
:1019A00091422FD099422DD0A1422BD0494529D028
:1019B000714527D0B94225D0DFF810C20CF1180CC0
:1019C00061451FD0DFF808C2ACF1600C614519D049
:1019D000DFF8FCC1ACF1480C614513D0DFF8F0C171
:1019E000ACF1300C61450DD0DFF8E4C1ACF1180C5E
:1019F000614507D0594505D0514503D0A94201D0D2
:101A0000B1422CD1DFF8B4C14FF0040880F8358022
:101A1000ACF1180C61451DD091421BD0994219D0F0
:101A2000A14217D0494515D0714513D0B94211D004
:101A30006648183081420DD065486038814209D02F
:101A400063484838814205D061483038814201D02E
:101A50005F481838086820F001000860ABE0D1F852
:101A600000C02CF00E08DFF854C1C1F80080ACF1C2
:101A7000180C0168614527D0914225D0994223D0A6
:101A8000A14221D049451FD071451DD0B9421BD07C
:101A9000DFF838C10CF1180C614515D0DFF830C102
:101AA000ACF1600C61450FD0DFF824C1ACF1480CFB
:101AB000614509D0DFF818C1ACF1300C614503D0A5
:101AC000DFF80CC1ACF1180CD1F800C02CF0010CFF
:101AD000C1F800C0DFF8E4804FF0010C0168A8F104
:101AE0001808414546D0914244D0994242D0A14283
:101AF00040D049453ED071453CD0B9423AD0334AF6
:101B00001832914236D0324A603A914232D0304A4D
:101B1000483A91422ED02E4A303A91422AD02C4A4D
:101B2000183A914226D0594524D0514522D0A94295
:101B300020D0B1421ED02A4A91421BD0284A1432EA
:101B4000914217D0264A2832914213D0244A3C327F
:101B500091420FD0224A503291420BD0204A643237
:101B6000914207D01E4A7832914203D01C4A8C32EF
:101B7000914218D1016E0A6822F480720A6090F8CE
:101B80005C20816D02F01F020CFA02F24A60D0E97B
:101B900019124A60C16E31B10A6822F480720A607B
:101BA000D0E91C124A600022016D80F835C080F82F
:101BB000342001B188470020DCE600002800024004
:101BC000580002407000024088000240A00002401D
:101BD0007004024088040240A0040240B80402409D
:101BE000085402582DE9F05F04007DD06D4A6D4B1A
:101BF0006C491832206830336B4E6C4F8842DFF8E6
:101C0000B0C1DFF8B081DFF8B091DFF8B0A1DFF844
:101C1000B0B1DFF8B0E121D090421FD098421DD082
:101C2000B0421BD0B84219D0604517D0404515D0FE
:101C3000484513D0504511D058450FD070450DD0B0
:101C4000604D1835A84209D05E4D3035A84205D008
:101C50005C4D4835A84201D05A4D6035056825F0E5
:101C60000105056020680025884227D0904225D0D4
:101C7000984223D0B04221D0B8421FD060451DD039
:101C800040451BD0484519D0504517D0584515D070
:101C9000704513D04B49183188420FD04949303133
:101CA00088420BD047494831884207D045496031C6
:101CB000884203D043497831884218D121210560F8
:101CC00020684560206885602068C56020680561DF
:101CD000206841612046FEF755FF94F85C203F21C3
:101CE00002F01F02914000E059E0816031E0364986
:101CF00088421BD034491431884217D032492831E8
:101D0000884213D030493C3188420FD02E4950319F
:101D100088420BD02C496431884207D02A49783157
:101D2000884203D028498C31884238D10560206828
:101D30004560206885602068C56020680561204690
:101D4000FEF720FF94F85C20012102F01F02914071
:101D500041602046FEF770FF206E18B10560D4E99F
:101D6000190141606068401E072807D82046FEF729
:101D7000B1FFE06E0560D4E91C014160E5662567AE
:101D80006567E56325646564A564E5642565656547
:101D900084F83550002084F83450BDE8F09F0120CD
:101DA000FBE70000100002405800024070000240B3
:101DB00088000240A0000240B80002401004024027
:101DC000280402404004024008540258406D704705
:101DD00090F83500704700002DE9FC5F0446F74E8F
:101DE0000020DFF8D88300904FF41652F44808F131
:101DF0001808A56DDFF8C493DFF8C0A3016809F1E6
:101E0000300920680AF1480AB1FBF2F1B0420191B1
:101E10002F68D5F800C0DFF8ACB335D04146884212
:101E200032D0484530D050452ED058452CD0E549C9
:101E30001831884228D0E3493031884224D0E14922
:101E40004831884220D0E04988421DD0DE4918310F
:101E5000884219D0DC493031884215D0DA494831FE
:101E6000884211D0DFF860E30EF1600E70450BD0B0
:101E7000D54A7832904207D0D34B9033984203D062
:101E8000D149A83188427DD194F85C20082102F024
:101E90001F0201FA02F23A424AD0B04232D0404523
:101EA00030D048452ED050452CD058452AD0C54A70
:101EB0001832904226D0C34A3032904222D0C14AD2
:101EC000483290421ED0C04A90421BD0BE4A1832BF
:101ED000904217D0BC4A3032904213D0BA4A4832AE
:101EE00090420FD0B84A603290420BD0B64A783256
:101EF000904207D0B44A9032904203D0B24AA832FE
:101F0000904203D1026802F0040202E0026802F08B
:101F100008026AB1026822F00402026094F85C00D0
:101F200000F01F008140A960606D40F00100606515
:101F300094F85C00012100F01F008140394240D03C
:101F40002068B04234D0404532D0484530D050456A
:101F50002ED058452CD09B4A1832904228D0994A0E
:101F60003032904224D0974A4832904220D0964A4C
:101F700090421DD0944A1832904219D0924A303281
:101F8000904200E0AFE113D08F4A483290420FD028
:101F90008D4A603290420BD08B4A7832904207D003
:101FA000894A9032904203D0874AA83290427DD12C
:101FB000406910F0800F04D0A960606D40F002000D
:101FC000606594F85C00042100F01F0081403942F4
:101FD0003ED02068B04232D0404530D048452ED067
:101FE00050452CD058452AD0764A1832904226D0F7
:101FF000744A3032904222D0724A483290421ED007
:10200000714A90421BD0704A1832904217D06E4AE3
:102010003032904213D06C4A483290420FD06A4A14
:10202000603290420BD0684A7832904207D0664ABC
:102030009032904203D0644AA83290424ED1006858
:1020400010F0020F04D0A960606D40F004006065DC
:1020500094F85C00102100F01F008140394258D0F4
:102060002068B04234D0404532D0484530D0504549
:102070002ED058452CD0534A1832904228D0514A7D
:102080003032904224D04F4A4832904220D04E4ABB
:1020900090421DD04C4A1832904219D04A4A3032F0
:1020A000904215D0484A4832904200E014E00FD0E8
:1020B000454A603290420BD0434A7832904207D072
:1020C000414A9032904203D03F4AA832904207D111
:1020D000006800F0080006E0006872E70068B7E7F3
:1020E000006800F00400A0B1A960206801684903FD
:1020F00004D50068000308D5A16C07E00168C90594
:1021000003D4016821F008010160216C09B1204667
:10211000884794F85C00202100F01F00814039427C
:1021200079D02068B04232D0404530D048452ED0DA
:1021300050452CD058452AD0224A1832904226D0F9
:10214000204A3032904222D01E4A483290421ED05D
:102150001D4A90421BD01C4A1832904217D01A4A8E
:102160003032904213D0184A483290420FD0164A6B
:10217000603290420BD0144A7832904207D0124A13
:102180009032904203D0104AA832904203D10068A6
:1021900000F0100002E0006800F00200B0B3A96097
:1021A00094F835000428206801680FD049037ED5D3
:1021B000006800032BD4616C2AE00000100002408C
:1021C00038000024700002401004024021F0160183
:1021D00001602068416921F080014161206C08B9EB
:1021E000A06C20B12068016821F00801016094F81A
:1021F0005C303F21012003F01F0300229940A960B9
:1022000084F8350084F83420216D65E003E0E16B4B
:1022100009B120468847606D00287DD0606DC007F9
:1022200059D02068042184F83510B0422BD04045A5
:1022300029D0484527D0504525D0584523D09D4921
:10224000884220D09B49183188421CD099493031AE
:10225000884218D09849884215D097491831884249
:1022600011D09549303188420DD093494831884288
:1022700009D091496031884205D08F497831884230
:1022800001D08D499031016821F001010160206881
:102290000099019A491C0091914202D80168C9072E
:1022A000F6D10068C00710D003200FE0FFE70168F7
:1022B000C905ACD403680121002223F01003036098
:1022C00084F8351084F83420A1E7012084F8350023
:1022D000002084F83400E16C00291DD002B02046B3
:1022E000BDE8F05F0847754988421DD07349143135
:1022F000884219D071492831884215D06F493C3144
:10230000884211D06D49503188420DD06B496431FB
:10231000884209D0694900E084E07831884203D0DE
:1023200066498C3188427DD194F85C80042701682D
:1023300008F01F0807FA08F717EA0C0F009746D0B5
:102340004F0744D500980F04686003D5C8033CD4F8
:10235000A16CC1E7880638D42068B0422DD0554919
:102360006039884229D0484527D0504525D0584566
:1023700023D05049884220D04E49183188421CD081
:102380004C493031884218D04B49884215D04A49CF
:102390001831884211D04849303188420DD0464921
:1023A0004831884209D0704507D0904205D0984204
:1023B00003D04149A831884203D1016821F00801C6
:1023C00002E0016821F004010160216C84E702272A
:1023D00007FA08F717EA0C0F00974ED08F074CD575
:1023E00000980F04686003D5C80344D4616C73E798
:1023F000880640D42068B0422FD02E4960398842E8
:102400002BD0484529D0504527D0584525D02949BB
:10241000884222D02749183188421ED025493031C0
:10242000884200E044E018D02349884215D0224970
:102430001831884211D02049303188420DD01E49D0
:102440004831884209D0704507D0904205D0984263
:1024500003D01949A831884203D1016821F0140141
:1024600002E0016821F00A010160012184F83510C1
:10247000002084F83400E16B2EE7082202FA08F20B
:1024800012EA0C0F14D0090712D5016821F00E01D1
:10249000016094F85C100120002201F01F0100FA95
:1024A00001F16960606584F8350084F8342012E732
:1024B000BDE8FC9F88000240100402400854025806
:1024C0002DE9F05F044600F035FE002C07467DD074
:1024D000E34E022120684FF00308DFF888934FF0A5
:1024E0000005DFF884A3B042DFF880B334D0DC4AC3
:1024F0001832904230D048452ED050452CD0584507
:102500002AD0DA4A1832904226D0D84A3032904245
:1025100022D0D64A483290421ED0D54A90421BD093
:10252000D34A1832904217D0D14A3032904213D059
:10253000CF4A483290420FD0CD4A603290420BD001
:10254000CB4A7832904207D0C94A9032904203D0A9
:10255000C74AA83290427DD184F83510B04284F841
:1025600034502ED0BE49183188422AD0484528D050
:10257000504526D0584524D0BC491831884220D037
:10258000BA49303188421CD0B8494831884218D005
:10259000B749884215D0B6491831884211D0B4499C
:1025A000303188420DD0B2494831884209D0B04913
:1025B0006031884205D0AE497831884201D0AC49BB
:1025C0009031016821F00101016008E027E100BFBE
:1025D00000F0B0FDC01B052801D920211CE12068B6
:1025E0000068C007F4D104F108002168D4E9053C73
:1025F0008E4685C809681043D4E907281F43636ADB
:1026000038439C4F40EA0C001043394040EA080030
:10261000042B40EA010003D1D4E90B121143084313
:10262000954909686FF30F01B1F1005F0FD361683D
:10263000A1F12902052A08D9163A032A05D9083A30
:10264000012A02D94F39032901D840F48010CEF86D
:10265000000000E023E02068676A4069042F20F052
:10266000070047EA00070DD1D4E90A01074349B141
:102670002046FEF769FB28B140206065012184F8FF
:102680003510CCE0206847612046FEF77BFA94F8CD
:102690005C203F2102F01F029140816054E0774AA4
:1026A00090421BD0754B1433984217D0734B28338C
:1026B000984213D0714B3C3398420FD06F4B50333C
:1026C00098420BD06D4B6433984207D06B4B7833F4
:1026D000984203D0694B8C3398427DD184F83510F1
:1026E00084F83450664B0168A26801EA030E402A60
:1026F00073D0802A72D00022D4E90378D4E905315E
:1027000042EAD70242EAD8085C4AD4E9077C48EAA0
:10271000D30848EAD10141EAD701524241EA1C11EB
:10272000142341EA0E01016020681044B0FBF3F06D
:102730008000E0652046FEF725FA94F85C20012130
:1027400002F01F02914041602068B04257D04449D6
:102750001831884253D0484551D050454FD0584544
:102760004DD042491831884249D0404930318842E1
:1027700045D03E494831884241D03D4988423ED00B
:102780003B49183188423AD039493031884236D0F5
:1027900037494831884232D03549603188422ED09D
:1027A0003349783188422AD031499031884226D045
:1027B0002F49A831884222D0304988421FD02F4962
:1027C000143188421BD02D492831884217D02B491B
:1027D0003C31884213D002E01DE017E018E02749A1
:1027E000503188420BD025496431884207D02349B3
:1027F0007831884203D021498C31884229D1204642
:10280000FEF71AFAA06880280CD00CE0102273E7BB
:102810004FF4804270E74021616584F835800120E3
:10282000BDE8F09F6560216E20790860D4E9190148
:1028300041606068401E072808D82046FEF74AFA23
:10284000E06E0560D4E91C01416002E0E5662567A1
:1028500065670120656584F835000020E0E7000029
:102860001000024040000240580002407000024048
:10287000100402403F8010FE0010005C0854025813
:102880000F00FEFF2DE9F84F04008C464FF00000CA
:10289000009014D094F83400012812D094F83550E8
:1028A0000120002184F83400012D0CD0C0026065A5
:1028B0000120009084F834100098BDE8F88F0120C2
:1028C000FBE70220F9E78C4D0226206884F835608A
:1028D000A8428A4D61658A4E8A4FDFF82C82DFF864
:1028E0002C92DFF82CA2DFF82CB226D0A84224D0FC
:1028F000B04222D0B84220D040451ED048451CD01E
:1029000050451AD0584518D08349884215D082497D
:102910001831884211D08049303188420DD07E492B
:102920004831884209D07C496031884205D07A49D3
:102930007831884201D078499031016821F0010155
:10294000016061462046FEF729FA6B4920688842FB
:102950002CD0A8422AD0B04228D0B84226D0404538
:1029600024D0484522D0504520D058451ED06A4A30
:1029700090421BD0684A1832904217D0664A3032D3
:10298000904213D0644A483290420FD0624A60327B
:1029900090420BD0604A7832904207D05E4A903223
:1029A000904203D05C4AA83290420CD1026822F0D7
:1029B0001E0242F016020260206C88B12068026894
:1029C00042F008020BE0026822F00E0242F00A0216
:1029D0000260206C20B12068026842F004020260AC
:1029E000206888424BD0A84249D0B04247D0B84274
:1029F00045D0404543D0484541D050453FD058454B
:102A00003DD0454A90423AD0434A1832904236D09F
:102A1000414A3032904232D03F4A483290422ED022
:102A20003D4A603290422AD03B4A7832904226D0CA
:102A3000394A9032904222D0374AA83290421ED072
:102A4000364A90421BD0354A1432904217D0334A4E
:102A50002832904213D0314A3C3290420FD02F4A54
:102A6000503290420BD02D4A6432904207D02B4A0C
:102A70007832904203D0294A8C3290420DD1206E98
:102A80000268D20303D5026842F480720260E06EED
:102A900018B1026842F4807202602068884226D031
:102AA000A84224D0B04222D0B84220D040451ED007
:102AB00048451CD050451AD0584518D01649884270
:102AC00015D015491831884211D013493031884248
:102AD0000DD011494831884209D00F4960318842F0
:102AE00005D00D497831884201D00B4990310168F9
:102AF00041F001010160DFE61000024028000240C1
:102B0000400002405800024070000240880002402D
:102B1000A0000240B80002401004024008540258CD
:102B200070B5044600F006FB0546601C02D0044860
:102B30000078044400F0FEFA401BA042FAD370BDB6
:102B40002C0000242DE9F05F044641488846002609
:102B5000017D01291AD0012202758146B246C0F8D2
:102B600018A02079C00706D001214CF25030FEF7A2
:102B700015FB00B10126207980070AD502214CF20D
:102B80005030FEF70BFB20B101265DE00220BDE8CE
:102B9000F09F6EBB20682F4D012807D04FF0FF310A
:102BA000C8F80010A76840F2047B48E0616820691B
:102BB000FEF7A8FA2079C0070AD001214CF2503064
:102BC000FEF7ECFA00B10126E86820F00800E860A2
:102BD0002079800738D502214CF25030FEF7DEFA1A
:102BE00000B10126D5F80C0120F00800C5F80C0151
:102BF0002AE0226938466168FEF764FA2079C00746
:102C000009D001214CF25030FEF7C8FAE9680646B7
:102C100021EA0B01E960207980070BD502214CF2F3
:102C20005030FEF7BBFAD5F80C11064621EA0B012D
:102C3000C5F80C1116B1C8F8007005E07F1CD4E986
:102C400002010844B842D4D8304689F814A09EE75F
:102C500004070024002000520A48C16841F0010125
:102C6000C160C168C9070BD0D0F80C1141F0010157
:102C7000C0F80C11D0F80C01C00701D0002070473B
:102C800001207047002000522DE9F05F2C481446C7
:102C900008250E46027D012A08D001230375A1F103
:102CA00000621F05BA4204D2012707E00220BDE8F6
:102CB000F09FA6F10161B9420DD202274FF0000A40
:102CC0008146C0F818A04CF2503B39465846FEF7F2
:102CD00065FA10B127E00120E9E7DFF86880012FED
:102CE000404623D0D0F80C1141F00201C0F80C117D
:102CF000BFF36F8FBFF34F8F01CC6D1E15F0FF0533
:102D000001C6F9D1BFF36F8FBFF34F8F39465846D5
:102D1000FEF744FA012F41460DD0D1F80C2122F0E4
:102D20000202C1F80C2189F814A0C0E7C16841F083
:102D30000201C160DCE7CA6822F00202CA60F2E761
:102D400004070024002000520D480E4A0E49C368B3
:102D5000DB0704D042604160C368DB070BD1D0F8C9
:102D60000C31DB0709D0C0F80421C0F80411D0F8F9
:102D70000C01C00701D001207047002070470000FF
:102D80000020005223016745AB89EFCD2DE9F04FBC
:102D90004F4D00224FF0010A4FF00F0B92E000BFA1
:102DA0000AFA02F919EA01037ED022F0030606F1BD
:102DB000B0469407D6F808C4270FDFF818810BFA3D
:102DC00007FE40450EEA0C0402D14FF0000C40E033
:102DD000DFF804C1604502D14FF0010C39E0DFF8A3
:102DE000FCC0604502D14FF0020C32E0DFF8F0C0C9
:102DF000604502D14FF0030C2BE0DFF8E8C06045DE
:102E000002D14FF0040C24E0DFF8DCC0604502D1B1
:102E10004FF0050C1DE0DFF8D4C0604502D14FF043
:102E2000060C16E0DFF8C8C0604502D14FF0070C71
:102E30000FE0DFF8C0C0604502D14FF0080C08E099
:102E4000DFF8B4C0604502D14FF0090C01E04FF04B
:102E50000A0C0CFA07FCA44513D12C689C432C6087
:102E60006F684FF0B0449F436F6067689F4367602F
:102E700027689F432760D6F8084424EA0E04C6F862
:102E8000084407680323D4084FEA42084FEA427C0B
:102E900003FA08F34FEADC6C1F4307600BFA0CF6E9
:102EA00000EB8404276A00E00BE0B7432762C468A4
:102EB0009C43C460446824EA0904446084689C43D9
:102EC0008460521C31FA02F37FF46AAFBDE8F08FE0
:102ED0008000005800000258000402580008025800
:102EE000000C025800100258001402580018025832
:102EF000001C025800200258002402582DE9F84F07
:102F000003247D4D00234FF001094FF0B04B4FF0EB
:102F10000F0AE9E009FA03F73A4076D00E7906F095
:102F20000306012E01D0022E18D1D0F808C04FEAB6
:102F3000430ECE6804FA0EF82CEA080C06FA0EF6D8
:102F400046EA0C068660D0F804C00E792CEA070C1D
:102F5000C6F300169E4046EA0C0646600E79F6431C
:102F6000B6070BD0C6684FEA43088F6804FA08FC1E
:102F700026EA0C0607FA08F73743C7600E7906F011
:102F80000306022E12D1DE080F694FEA437C00EBE4
:102F90008606B646366A4FEADC6C0AFA0CF807FA7F
:102FA0000CF726EA08063743CEF820700F7906683A
:102FB0004FEA430807F0030704FA08FC07FA08F78A
:102FC00026EA0C06374307604E6816F4403F1CD0D3
:102FD0004A4E376847F00207376036689F0706F0A9
:102FE0000206009623F0030606F1B046B6463F0FF0
:102FF000D6F80864DFF808810AFA07FC404526EA9B
:103000000C0603D14FF0000C41E06CE0DFF8F4C097
:10301000604502D14FF0010C39E0DFF8ECC06045AB
:1030200002D14FF0020C32E0DFF8E0C0604502D17F
:103030004FF0030C2BE0DFF8D8C0604502D14FF011
:10304000040C24E0DFF8CCC0604502D14FF0050C41
:103050001DE0DFF8C4C0604502D14FF0060C16E059
:10306000DFF8B8C0604502D14FF0070C0FE0DFF881
:10307000B0C0604502D14FF0080C08E0DFF8A4C0F2
:10308000604502D14FF0090C01E04FF00A0C0CFA38
:1030900007FC4CEA060CCEF808C44F68DBF8006069
:1030A000FF0226EA020600D516435F46CBF8006011
:1030B000D1F804C0DBF804605FEA8C2C26EA020633
:1030C00000D516437E606E684F6826EA0206BF038D
:1030D00000D516436E602E684F6826EA0206FF038D
:1030E00000D516432E605B1C0A6832FA03F67FF4A3
:1030F00011AFBDE8F88F000080000058F44402587A
:10310000000002580004025800080258000C02583F
:10311000001002580014025800180258001C0258EF
:10312000002002580024025801480068000C704733
:103130000010005C01488068704700002C000024EB
:1031400070B5040013D022684CF6CC4145F25550BE
:10315000116021680860D4E9000141602168A0681D
:103160008860FFF7E7FF054641F601060DE0012004
:1031700070BD00BFFFF7DEFF401BB04205D92068DD
:10318000C068400701D0032070BD2068C0684007B8
:10319000F0D12068E16802698A4201D0016102E051
:1031A0004AF6AA210160002070BD00000248816833
:1031B00002781144816070472C000024032010B570
:1031C00000F0E4F801F0B6F90F4A104914681368EA
:1031D000C4F3032203F00F038A5CC95C02F01F02F0
:1031E00001F01F01D0400A4A20FA01F1116009499B
:1031F00008600F2000F010F808B1012010BD00F0A9
:1032000079F8002010BD0000184402583C760008F0
:103210003C0000243800002470B50D4D0446287889
:10322000A0B14FF47A71B1FBF0F00A490968B1FB23
:10323000F0F001F0DCFC48B9102C07D20022214646
:10324000501E00F083F800206C6070BD012070BD3E
:103250002C00002438000024154BF0B5083B4278C0
:1032600013491A600B680A1F23F001030B604368BF
:103270001360057BC67A827A437B2D07847B45EAFF
:103280000665C77B90F809C0067A90F800E045EA29
:10329000C24040EA834040EA444040EA074040EAF6
:1032A0000C2040EA460040EA0E000860F0BD000035
:1032B000A0ED00E0BFF35F8F044800210368034ADC
:1032C00023F48033036070321160704724ED00E016
:1032D000074A40F00100064970321060086840F467
:1032E00080300860BFF34F8FBFF36F8F70470000CF
:1032F00024ED00E0054808B5016841F002010160D5
:10330000006800F00200009008BD0000F44402587C
:1033100000280DDB410900F01F028900012001F1A6
:10332000E0219040C1F88001BFF34F8FBFF36F8F52
:103330007047002809DB410900F01F0289000120C5
:1033400001F1E0219040C1F8000170470E4BF0B44C
:103350001B680D46C3F30223C3F10706042E00D9F0
:103360000426191D072901D2002300E0DB1E0124D9
:1033700004FA06F19C40491E2940641E99401440FD
:103380002143F0BC03F00AB80CED00E0064900F060
:10339000070210B54FF6FF040868044B204040EACE
:1033A00002201843086010BD0CED00E00000FA0593
:1033B000134970B50A68D243520705D5096801F070
:1033C0000701814213D118E00A6822F00702024384
:1033D0000A60FFF7AFFE0A4D4FF47A760446083DC7
:1033E00007E000BFFFF7A6FE001BB04201D9012095
:1033F00070BD2868C0438004F4D4002070BD000074
:103400000C48025810B501F04FF805490968054A03
:10341000C1F30211515C01F01F01C84010BD000052
:10342000204402583C760008494930B5484C0B1DF1
:103430000A68143409681D68246802F00303C5F3A0
:103440000012C1F30531C4F3CC04002914FB02F2CD
:1034500000EE102AF8EE400A75D03F4A9FED3D1A63
:10346000B7EE000A6BB1DFED3D1A012B01D0022B44
:1034700064D002EE101A1168F8EE422A81EEA22AF8
:1034800021E0334C283C23689B0612D5344B24683A
:1034900001EE901A1168C4F3C104F8EE612AE3400A
:1034A00001EE903AC1F30801F8EE611A81EEA22A0A
:1034B0000BE001EE901ADFED2B2A00BFF8EE611A47
:1034C000116882EEA12AC1F3080101EE901A116879
:1034D000F8EE611A40EE811A71EE800A62EE200A5F
:1034E000C1F3462101EE101AB8EE411A31EE001A6E
:1034F000C0EE811ABCEEE11A80ED001A1168C1F32A
:10350000064101EE101AB8EE411A31EE001AC0EE73
:10351000811ABCEEE11A80ED011A1168C1F306614F
:1035200001EE101AB8EE411A31EE000A80EE801A50
:10353000BCEEC10A80ED020A30BD04E001EE901A33
:10354000DFED092ABAE70021016041608160F3E7FD
:103550002844025800000039384402580024744AB4
:103560000090D0030024744C20BCBE4B494930B5B8
:10357000484C0B1D0A681C3409681D68246802F059
:103580000303C5F30022C1F30551C4F3CC040029A1
:1035900014FB02F200EE102AF8EE400A75D03F4A02
:1035A0009FED3D1AB7EE000A6BB1DFED3D1A012B1E
:1035B00001D0022B64D002EE101A1168F8EE422AF4
:1035C00081EEA22A21E0334C283C23689B0612D5C9
:1035D000344B246801EE901A1168C4F3C104F8EE6C
:1035E000612AE34001EE903AC1F30801F8EE611A56
:1035F00081EEA22A0BE001EE901ADFED2B2A00BF2C
:10360000F8EE611A116882EEA12AC1F3080101EEF9
:10361000901A1168F8EE611A40EE811A71EE800A74
:1036200062EE200AC1F3462101EE101AB8EE411AEB
:1036300031EE001AC0EE811ABCEEE11A80ED001ADC
:103640001168C1F3064101EE101AB8EE411A31EECD
:10365000001AC0EE811ABCEEE11A80ED011A116861
:10366000C1F3066101EE101AB8EE411A31EE000AFC
:1036700080EE801ABCEEC10A80ED020A30BD04E083
:1036800001EE901ADFED092ABAE7002101604160DE
:103690008160F3E728440258000000394044025892
:1036A0000024744A0090D0030024744C20BCBE4B0C
:1036B0002DE9FE4F0546DFF8E48350F8081B00248F
:1036C000F64FC943019005F12800264608F1240869
:1036D000009008011DD4A86E50B1B0F5801F0CD029
:1036E000B0F5001F0ED0B0F5401F1ED001240FE032
:1036F000386840F40030386017E00198022102F089
:1037000003F803E00098022102F08EF804000CD0C8
:1037100026462888C043C00523D4A86D05281ED29C
:10372000DFE800F00C11161B1B00AA6ED8F8001081
:1037300021F440111143C8F80010EAE7386840F45A
:103740000030386009E00198002101F0DDFF03E05E
:103750000098002102F068F8044674B100E00124EA
:1037600026462888C043800528D4E86D80281ED0CE
:103770000CDC90B140280ED114E0AA6DD8F80010EE
:1037800021F007011143C8F80010EAE7C02813D060
:10379000B0F5807F10D001240FE0386840F400308D
:1037A000386009E00198002101F0AEFF03E00098C5
:1037B000002102F039F804469CB126462888DFF83B
:1037C000DC92C04309F12C0940052CD4D5F8A8009F
:1037D000B0F5800F20D00DDCA0B1B0F5001F0FD1E7
:1037E00015E0EA6DD8F8001021F4E0711143C8F833
:1037F0000010E3E7B0F5C00F13D0B0F5000F10D004
:1038000001240FE0386840F40030386009E0019886
:10381000002101F079FF03E00098002102F004F894
:1038200004467CB126462888C04300052DD4D5F82F
:10383000AC00B0F1007F21D00EDCA8B1B0F1807FE8
:1038400010D116E0D5F8A820D9F8001021F46001B5
:103850001143C9F80010E6E7B0F1407F13D0B0F192
:10386000806F10D001240FE0386840F400303860D9
:1038700009E00198002101F047FF03E000980021D2
:1038800001F0D2FF044674B126462868C043800187
:103890001FD4E86CD8B110280FD0202812D03028BF
:1038A00015D0012414E0D5F8AC20D9F8001021F08F
:1038B000E0611143C9F80010E7E7386840F40030D0
:1038C000386004E00198022101F01EFF044674B143
:1038D00026462888C043C0042BD4286EB0F5005F6C
:1038E00020D00DDCA0B1B0F5805F0FD115E06B48A2
:1038F000EA6C2030016821F0300111430160E8E7F3
:10390000B0F5405F13D0B0F5804F10D001240FE028
:10391000386840F40030386009E00198002101F077
:10392000F3FE03E00098002101F07EFF04468CB115
:1039300026462888C043800429D4686EB0F5403FED
:1039400023D010DC08B3B0F5803F14D0B0F5003FB1
:103950000FD115E02A6ED8F8001021F4E041114390
:10396000C8F80010E5E7B0F5802F0ED0B0F5A02F15
:103970000BD001240AE00198012101F0C5FE03E00B
:103980000098012101F050FF044694B12646288892
:10399000C04340042AD4D5F8B000B0F1405F23D032
:1039A00010DC08B3B0F1805F14D0B0F1005F0FD12C
:1039B00015E06A6ED8F8001021F4E0211143C8F830
:1039C0000010E4E7B0F1804F0ED0B0F1A04F0BD063
:1039D00001240AE00198012101F096FE03E000981D
:1039E000012101F021FF044674B126462888C04316
:1039F00000041FD4286FD8B1B0F1805F0ED0B0F1B1
:103A0000005F10D0012414E0D5F8B020D9F80010E0
:103A100021F0E0411143C9F80010E7E7386840F4AD
:103A20000030386004E00198012101F06DFE044689
:103A300074B126462868C043C0011ED4A86CD0B11A
:103A400001280ED0022811D0032814D0012413E03D
:103A50002A6FD8F8001021F040511143C8F8001027
:103A6000E8E7386840F40030386004E0019802214B
:103A700001F04AFE0446ACB126462868DFF81CB0C7
:103A8000C043ABF11C0B400252D40548016841F41D
:103A900080710160FFF74EFB824611E02C44025812
:103AA00000480258FA48AA6C016821F0030111434A
:103AB0000160E2E7FFF73EFBA0EB0A00642835D87F
:103AC000F4480068C005F5D58CBBDFF8C4A3B5F891
:103AD000B4100AF1240ADAF8000001F4407100F48D
:103AE0004070884211D0DAF80010DAF8002021F492
:103AF000407142F48032CAF80020DAF8002022F443
:103B00008032CAF80020CAF80010D5F8B400B0F529
:103B1000807F1AD1FFF70EFB029012E0FFF70AFB3D
:103B20000299411A41F2883081420AD9032426467B
:103B30002878DFF85CA3C0430AF1080AC00721D047
:103B40003CE0DAF800008007E8D5D5F8B410C1F3FE
:103B50000120032858460DD0016821F47C510160F2
:103B6000B5F8B420DAF80010C2F30B021143CAF81A
:103B70000010DDE7C84A036802EA111223F47C5101
:103B80001143ECE7E86F182816D005DCA0B108282F
:103B900008D0102804D10AE020280DD028280BD006
:103BA00001240AE00198012101F0AEFD03E0009834
:103BB000012101F039FE044664B126462878C0434D
:103BC00080071ED4A86F062819D2DFE800F0160C73
:103BD00011161616EA6FDAF8001021F038011143B9
:103BE000CAF80010EAE70198012101F08DFD03E019
:103BF0000098012101F018FE04467CB100E0012488
:103C000026462878C04340071FD4D5F894000628DC
:103C100019D2DFE800F0160C11161616AA6FDAF8A2
:103C2000001021F007011143CAF80010E9E70198DC
:103C3000012101F069FD03E00098012101F0F4FD8C
:103C40000446A4B100E0012426462878C04380063B
:103C50002BD4D5F89000B0F1405F24D011DC10B324
:103C6000B0F1805F15D0B0F1005F10D116E0D5F84B
:103C70009420D9F8001021F007011143C9F8001071
:103C8000E3E7B0F1804F0ED0B0F1A04F0BD001248C
:103C90000AE00198002101F037FD03E000980221BD
:103CA00001F0C2FD044694B126462878C043400680
:103CB0002BD4D5F89C00B0F5406F24D011DC10B3A4
:103CC000B0F5806F15D0B0F5006F10D116E0D5F8C3
:103CD0009020DAF8001021F0E0411143CAF80010FA
:103CE000E3E7B0F5805F0ED0B0F5A05F0BD0012404
:103CF0000AE00198002101F007FD03E0009802218D
:103D000001F092FD044694B126462878C04300068F
:103D10002BD4D5F8A000B0F5C04F24D011DC10B3DF
:103D2000B0F5005F15D0B0F5804F10D116E0D5F892
:103D30009C20D9F8001021F4E0511143C9F800107B
:103D4000E3E7B0F5004F0ED0B0F5204F0BD00124C3
:103D50000AE00198002101F0D7FC03E0009802215D
:103D600001F062FD044654B126462878C04300079E
:103D70001ED4D5F88400B0F5805F0AD00FE0D5F8E6
:103D8000A020D9F8001021F460411143C9F80010B7
:103D9000EBE70098022101F047FD00B10126D5F8BC
:103DA0008420DAF8001021F440511143CAF80010C1
:103DB0002878C043C00613D4D5F89800B0F5807FAA
:103DC00005D10098022101F02FFD00B10126D5F8A0
:103DD0009820D9F8001021F440711143C9F800105F
:103DE0002868C043000316D4D5F8A40038B1B0F554
:103DF000803F09D0B0F5003F0BD001240AE00198C4
:103E0000002101F081FC03E00098022101F00CFD8B
:103E100004468CB126462868C043400322D4D5F816
:103E20008800B0F5801F11D0B0F5001F13D0B0F599
:103E3000401F15D0012414E0D5F8A420D9F80010B3
:103E400021F440311143C9F80010E4E7386840F428
:103E50000030386004E00098012101F0E5FC0446E0
:103E60005CB126462868C043C00323D4286DA8B19E
:103E7000B0F5803F17D001241BE0D5F88820DAF890
:103E8000001021F440111143CAF80010EAE70000C5
:103E90004C44025800480258CFFFFF00386840F4F5
:103EA0000030386004E00198022101F02DFC044646
:103EB000E4B126462868C043800005D4009802215A
:103EC00001F0B2FC00B101262868C04380031BD476
:103ED000D5F88000B0B1B0F5807F0FD0B0F5007F8D
:103EE00010D0B0F5407F0DD001240CE05A482A6D67
:103EF000016821F4803111430160DBE7386840F448
:103F000000303860ECB326462868C043C00207D4AE
:103F10006A6FD8F8001021F000411143C8F8001072
:103F20002868C043C00008D4D5F8B820DBF80010DA
:103F300021F480411143CBF800102868C04380026F
:103F400007D4EA6ED8F8001021F080711143C8F848
:103F500000102868C04340000CD4DBF8001021F4A6
:103F60000041CBF80010DBF80010D5F8BC2011435D
:103F7000CBF800102868C04308D437486A6D016840
:103F800000E018E021F04051114301602868C0436F
:103F9000000208D4D5F88C20DAF8001021F4400192
:103FA0001143CAF8001028790024C04300F0010032
:103FB00020430AD00FE0D5F88020DAF8001021F471
:103FC00040711143CAF800109EE70198002101F0EA
:103FD0009BFB00B106462879C04300F00200204355
:103FE00005D10198012101F08FFB00B10646287927
:103FF000C04300F00400204305D10198022101F0E4
:1040000083FB00B106462879C04300F00800204336
:1040100005D10098002101F007FC00B1064628797F
:10402000C04300F01000204305D10098012101F0A9
:10403000FBFB00B106462879C04300F02000044392
:1040400004D10098022101F0EFFB00B916B1012064
:10405000BDE8FE8F0020FBE74C4402582DE9F05FDD
:1040600004000F467ED0DFF83882D8F8000000F058
:104070000F00B8420CD2D8F8001021F00F013943DC
:10408000C8F80010D8F8000000F00F00B84269D15D
:104090002078844D40070AD52069296801F0700115
:1040A000884204D9296821F07001014329602078F1
:1040B0007C4E361D00070AD56069316801F0700139
:1040C000884204D9316821F07001014331602078C1
:1040D000C0060AD5A069316801F4E061884204D9BC
:1040E000316821F4E061014331602078DFF8B4B138
:1040F00080060BF1080B0CD5E1695846DBF800206F
:1041000002F07002914204D9026822F070020A4360
:104110000260207880070AD5E068296801F00F0165
:10412000884204D9296821F00F01014329602078D1
:10413000C0073ED05B49A2682868183920F4706037
:10414000104328606068022818D0032819D0096835
:10415000012819D0490700294ADADFF848A1AAF155
:10416000080A00E044E0DAF8002022F007020243E7
:10417000CAF80020FEF7DEFF814612E009688903D5
:10418000E9E709688901E6E7C905E4E7FEF7D2FF38
:10419000A0EB090141F28830814202D90320BDE839
:1041A000F09F6168DAF8000000F03800B0EBC10F52
:1041B000ECD1207880070AD5E068296801F00F016A
:1041C000884204D2296821F00F0101432960D8F800
:1041D0000010404601F00F01B9420BD9016821F0EF
:1041E0000F0139430160006800F00F00B84201D0B0
:1041F0000120D4E7207840070AD52069296801F01A
:104200007001884204D2296821F0700101432960BD
:10421000207800070AD56069316801F07001884292
:1042200004D2316821F07001014331602078C0066A
:104230000AD5A069316801F4E061884204D231688E
:1042400021F4E06101433160207880060CD5E169FA
:104250005846DBF8002002F07002914204D2026856
:1042600022F070020A43026000F064F90E492A68E5
:104270002B68C2F3032203F00F038A5CC95C02F0CF
:104280001F0201F01F01D040084A20FA01F111601D
:104290000749086007480068BDE8F05FFEF7BCBF4B
:1042A00000200052184402583C7600083C000024CC
:1042B00038000024300000242DE9F047704C2068BD
:1042C00000F00F00072809D2206820F00F00C01D61
:1042D0002060206800F00F0007287CD1FEF72AFF3D
:1042E000DFF8A0810546D8F8000040F00100C8F8CA
:1042F000000004E0FEF71EFF401B022875D8D8F826
:1043000000004007F6D55F4800275E4E001D1036BE
:1043100003685D4943F08043036037605B48016098
:104320005B4801605B480068FEF776FF002852D1C9
:10433000FEF700FF054641F2883904E0FEF7FAFE79
:10434000411B494551D8306810F0380FF6D1FEF7BF
:10435000F1FE51490546D8F800000840C8F80000B1
:1043600005E000BFFEF7E6FE401B64283DD8D8F804
:1043700000008003F6D4FEF7DDFE0546D8F8000005
:1043800020F08070C8F8000005E000BFFEF7D2FE04
:10439000401B022829D8D8F800008001F6D4FEF787
:1043A000C9FE0546D8F8000020F08060C8F800007B
:1043B00005E000BFFEF7BEFE401B022815D8D8F866
:1043C00000000001F6D4FEF7B5FE0546D8F800005F
:1043D00020F0805001E04EE007E0C8F8000007E060
:1043E000FEF7A8FE401B022802D90320BDE8F08793
:1043F000D8F800008000F3D4224D384627491835FC
:10440000274B2E1D321D2F601E4F264D2837306042
:104410003E1D1060321D3B60131D35601D1D116077
:104420002A1D161D1860331D296010603160186048
:10443000D8F800304FF0FF351249124A23F4802398
:10444000104ED0316032C8F80030683610603560E8
:10445000086840F480300860206800F00F000728EA
:104460000BD9206820F00F00C01D2060206800F0EC
:104470000F00072801D00120B8E70020B6E70000B0
:1044800000200052004402580090D003380000245D
:104490003C0000243000002445EDF6FF80020101BD
:1044A000000202020000FF0130B500F043F80B4AA1
:1044B0000B490C4B15681468C5F3032204F00F0474
:1044C0008A5C095D02F01F0201F01F01D040064A1C
:1044D00020FA01F119601060084630BD18440258F6
:1044E0003C7600083C0000243800002400B5FFF7AB
:1044F000DBFF05490968054AC1F30211515C01F06F
:104500001F01C84000BD00001C4402583C76000852
:1045100000B5FFF7C9FF05490968054AC1F3022143
:10452000515C01F01F01C84000BD00001C4402584E
:104530003C760008454970B545480968434B103B37
:1045400011F0380208D00111082A03D0102A0BD02C
:10455000182A0BD0084670BD19688906FBD5196862
:10456000C1F3C101C84070BD3A4870BD3749374DED
:1045700018310C1D24350A68096826682D6802F078
:10458000030406F00102C1F30511C5F3CC0515FBC8
:1045900002F200EE102AB8EE400AE9B32F4ADFED2E
:1045A0002E0AB7EE001A6CB1DFED2D1A012C01D0E6
:1045B000022C43D002EE101A1068F8EE422A81EE67
:1045C000A22A1EE01C68A40611D51B6801EE901AF1
:1045D0001168C3F3C103F8EE612AD84001EE900AD6
:1045E000C1F30800F8EE611A81EEA22A0BE001EE99
:1045F000901ADFED1C2A00BFF8EE611A106882EEF7
:10460000A12AC0F3080001EE900AF8EE611A40EE0C
:10461000201A31EE810A00E015E022EE000A10684F
:10462000C0F34620401C00EE900AF8EE600A80EECF
:10463000201ABCEEC10A10EE100A70BD01EE901AED
:10464000DFED092AD8E7002070BD000010440258B1
:104650000090D00340787D010000003930440258BA
:104660000024744A0024744C20BCBE4B2DE9F05F3A
:1046700004007DD0FF4F2078FE4D1837DFF8F4930B
:10468000103DC00748D0D9F80000396800F0380064
:10469000102815D0182803D101F0030002280FD0EC
:1046A0006068B0F5803F12D010B1B0F5A02F18D0DF
:1046B000286820F480302860286820F4802009E0F1
:1046C0002868800328D560680028D2D024E02868B4
:1046D00040F480302860606888B1FEF72BFD064604
:1046E00009E0286840F480202860F0E7FEF722FD0A
:1046F000801B64286FD828688003F7D50CE0FEF78C
:1047000019FD064605E000BFFEF714FD801B642876
:10471000F0D828688003F7D4207841F20308D54EFA
:104720000C3E800769D5D9F80000396810F03800D0
:104730000ED0182801D188070AD0E06890B3296804
:1047400021F0190101432960FEF7F4FC824631E0B3
:104750002868400702D5E06800288AD0E168286808
:1047600020F0190008432860FEF7E4FC824607E0C9
:10477000DFE000BFFEF7DEFCA0EB0A000228B9D89C
:1047800028684007F6D500BFFEF7CEFC40451BD891
:104790002069402812D0316821F47C3141EA003090
:1047A00030602AE018E000BFFEF7C4FCA0EB0A006E
:1047B00002289FD828684007F6D5E5E7306820F43E
:1047C0007C3040F40030EBE7207C316821F0FE4182
:1047D00041EA0060E4E70DE1286820F0010028606C
:1047E000FEF7A8FC824605E0FEF7A4FCA0EB0A0059
:1047F00002288DD828684007F6D42078C0065DD5F9
:10480000D9F80000DFF86CB2396800F03800ABF17D
:10481000040B082810D0182803D101F00300012848
:104820000AD0E0690028286838D040F0800028606D
:10483000FEF780FC824623E02868C00523D5E069A6
:10484000802876D11FE0206A202821D0316821F00D
:10485000F84141EA8060306030E000BF94F82010F9
:10486000DBF8002022F07C5242EA0161CBF8001014
:1048700024E000BFFEF75EFCA0EB0A00022898D8F7
:104880002868C005F6D5FEF74FFC4045E6D8DAE7C4
:10489000306820F0F84040F08040DCE720F08000F5
:1048A0002860FEF747FC064605E000BFFEF742FC25
:1048B000801B02289DD82868C005F7D420780007FF
:1048C00029D56C486169643000298046016811D09F
:1048D00041F001010160FEF72DFC064605E000BF36
:1048E000FEF728FC801B0228C9D8D8F800008007F2
:1048F000F6D510E021F001010160FEF71BFC064631
:1049000005E000BFFEF716FC801B022872D8D8F81D
:1049100000008007F6D42078800623D5A0690028FF
:10492000286810D040F480502860FEF703FC06464B
:1049300005E036E1FEF7FEFB801B02285AD8286806
:104940008004F7D50EE020F480502860FEF7F2FBDB
:10495000064604E0FEF7EEFB801B02284AD82868D2
:104960008004F7D4207840074FD5DFF80C81D8F8C1
:10497000001041F48071C8F80010FEF7DBFB06461A
:1049800005E000BFFEF7D6FB801B642832D8D8F8BC
:104990000000C005F6D5374EA068603601280AD061
:1049A00008B1052813D0306820F00100306030686D
:1049B00020F0040002E0306840F001003060A068A0
:1049C00041F2883A90B1FEF7B5FB80460AE03068C4
:1049D00040F004003060EEE7FEF7ACFBA0EB08010E
:1049E000514507D830688007F6D50EE0FEF7A2FBE8
:1049F000804607E084E000BFFEF79CFBA0EB0801C7
:104A000051457DD830688007F6D4606AB0B3DFF8CE
:104A10006480D9F8001008F120084FF6F87B08F1FF
:104A20000409C1F3C2010329A8F1040A69D00228CC
:104A3000286820F08070286003D0FEF77BFB0446D6
:104A400084E0FEF777FB064605E000BFFEF772FB49
:104A5000801B022877D828688001F7D4E26A40F2E8
:104A6000F331386854F8283F884340EA021018436D
:104A7000386004E01044025800480258B5E0217B39
:104A8000434622894FF4FE0C208A4FF0FE4749022C
:104A9000267D521E401EA1F50071C2F308088AB29D
:104AA000761E0CEA004042EA08020243504607EA3A
:104AB00006610A431A60DAF8002022F00102CAF8FF
:104AC0000020D9F80020266A22EA0B0242EAC60238
:104AD000C9F80020DAF80010A26921F00C01114396
:104AE000CAF800100168E26921F002011143016077
:104AF000016841F480310160016841F4003101E056
:104B000021E027E00160016841F480210160016833
:104B100041F001010160286840F080702860FEF7D4
:104B200009FB044605E000BFFEF704FB001B02285A
:104B300009D828688001F7D557E000BFFEF7FAFAD8
:104B4000001B022802D90320BDE8F09F28688001DD
:104B5000F4D44AE039680128D8F8000021D0A26ACC
:104B600001F0030393421CD1E26AC1F305118A42AA
:104B700017D1216BC0F30802491E8A4211D1616B23
:104B8000C0F34622491E91420BD1A16BC0F30642ED
:104B9000491E914205D1E16BC0F30660491E814276
:104BA00001D00120D0E7A16C4E46D9F80000C0F337
:104BB000CC00814219D0DAF80000554620F00100FF
:104BC000CAF80000FEF7B6FA4FEA0007FEF7B2FA9D
:104BD000B842FBD0A26C306820EA0B0040EAC20069
:104BE0003060286840F0010028600020ACE7401EDB
:104BF000B0F1807F10B501D3012010BD4FF0E0244B
:104C000060610F21601701F0C9FB0020A06107213E
:104C1000216110BD30B590F88410012918D001220F
:104C200080F884202421C0F8881000222024016804
:104C30000B680D6823F0005325F001050D604266F6
:104C400001680B60C0F8884080F88420104630BDB1
:104C5000022030BD10B50446D0F88C00202801D0C9
:104C6000022010BD61B15AB10123E3660020206724
:104C7000204601F0D7FA0028F3D1E16E012901D0D6
:104C8000012010BD226810211162226852E8001F25
:104C900041F0100142E80013002BF6D110BD0000D6
:104CA0000F4AF0B400681268904216D10D4A0020F5
:104CB0000D4C4FF4967509E01388AB4208D2138867
:104CC000265C5F1C17801344401C1E718842F3D37E
:104CD00001209070F0BCFCF773B9F0BC7047000085
:104CE000D003002440000024A4020024704770B5C3
:104CF000044690F8840001281DD0012284F8842005
:104D00002420C4F8880020680568026822F00102A7
:104D100002602068826822F060620A438260204656
:104D200000F0E8FE2268202100201560C4F88810F9
:104D300084F8840070BD022070BD70B5044690F800
:104D4000840001281DD0012284F884202420C4F886
:104D5000880020680568026822F00102026020686D
:104D6000826822F060420A438260204600F0C2FE60
:104D70002268202100201560C4F8881084F884007F
:104D800070BD022070BD70477047000070B50446CA
:104D9000216851E8000F20F4907041E80002002AD9
:104DA000F6D1244A2068083050E8001F114040E83E
:104DB0000013002BF6D1E06E012808D1216851E8DC
:104DC000000F20F0100041E80002002AF6D1206810
:104DD00000258068400618D52068083050E8001F7C
:104DE00021F0400140E80012002AF5D1D4F88000FB
:104DF00058B10565D4F88000FCF702FC28B1D4F85E
:104E00008000FCF7E3FF20280FD00F20A4F85E50AD
:104E10002268202110622068826942F008028261C3
:104E2000C4F88C10E566002070BD1020C4F8900016
:104E3000032070BDFEFFFFEF044900680968884247
:104E400003D102210162FCF7BBB87047D0030024F4
:104E50002DE9F04107680025044640F60F030226BD
:104E6000F8693968BA6818420AD183067ED501F01C
:104E7000200302F0805C53EA0C0377D0616F7EE17F
:104E8000D44BDFF854C3134001EA0C0C53EA0C0C6A
:104E90006CD05FEAC07C0CD05FEAC15C09D54FF0F2
:104EA000010CC7F820C0D4F8907047F00107C4F88F
:104EB0009070870709D5D70707D027683E62D4F8D6
:104EC000906046F00406C4F8906046070AD5D607FD
:104ED00008D0276804263E62D4F8906046F00206A7
:104EE000C4F8906006070CD501F020061E4308D0D8
:104EF000266808233362D4F8903043F00803C4F8DE
:104F0000903003050BD54B0109D526684FF400639B
:104F10003362D4F8903043F02003C4F89030D4F8D2
:104F20009030002B3DD0800609D501F0200002F022
:104F30008051084303D0616F09B12046884721683A
:104F4000D4F890008968490602D410F0280F2AD0BE
:104F5000204600F04FFF2068806840061ED520687C
:104F6000083050E8001F21F0400100E021E040E857
:104F70000012002AF3D1D4F8800078B19749016576
:104F8000D4F88000FCF7ECFC00280AD0D4F88000AC
:104F9000016D00E02046BDE8F04108472046FFF7DC
:104FA0004BFFBDE8F0812046FFF746FFC4F8905064
:104FB000F7E7D4F86CC02023BCF1010F7ED15FEA83
:104FC000C06C7BD55FEAC16C78D510203862206850
:104FD0008068400673D5D4F88020814910688842E3
:104FE00034D07F491831884230D07D4930318842F1
:104FF0002CD07B494831884228D079496031884299
:1050000024D077497831884220D075499031884240
:105010001CD07349A831884218D07249884215D0F3
:1050200070491831884211D06E49303188420DD014
:105030006C494831884209D06A496031884205D0BC
:1050400068497831884201D06649903140684FF410
:1050500080770004000C40D0B4F85C1081423CD949
:10506000A4F85E00D069B8422FD0216851E8000F43
:1050700020F4807041E80002002AF6D12068083050
:1050800050E8001F21F0010140E80012002AF5D18C
:105090002068083050E8001F21F0400140E800126D
:1050A000002AF5D1C4F88C30E566206850E8001F6E
:1050B00021F0100140E80012002A01E04AE019E066
:1050C000F3D1D4F88000FCF79BFA2667B4F85C00B3
:1050D000B4F85E10401A81B208E0B4F85C10814266
:1050E0007FF466AFD069B842FAD126672046FFF751
:1050F000D7FD56E7B4F85C00B4F85E10B4F85E2053
:10510000401A81B2002AF4D00029F2D0226852E875
:10511000000F20F4907042E80007002FF6D1324FC4
:10512000206800F1080050E8002F02EA070240E87A
:10513000002CBCF1000FF3D1C4F88C30E566656734
:10514000226852E8000F20F0100042E80003002B14
:10515000F6D1CAE7C60209D5560207D54FF480102A
:1051600038622046BDE8F041FFF70EBE06060AD5BC
:1051700001F0800602F40002164304D0A16F00295A
:105180007FF408AF0DE7420611D54A060FD5204639
:10519000016851E8002F22F0400241E80024002C71
:1051A000F6D1C0F88830856700F084F9F9E602028C
:1051B00006D54A0004D52046BDE8F041FFF7E3BD1F
:1051C000C00196D5002994DA2046BDE8F041FFF7EA
:1051D0008DBD00000100001020010004AB5C000840
:1051E0001000024010040240FEFFFFEF10B5040063
:1051F00003D0D4F8880010B107E0012010BD0020D2
:1052000084F88400204600F05DF82420C4F888006B
:105210002068016821F001010160A06A10B12046F8
:1052200000F08AFC204600F027FE0128E6D0206826
:10523000416821F4904141602068816821F02A0191
:1052400081602068016841F0010101602046BDE8ED
:10525000104000F0D5BC000010B5154904460068A8
:10526000884215D11348016821F0100101601248ED
:105270004FF4C061FDF78AFDD4F88000FCF7B2FC62
:10528000E06FFCF7AFFCBDE810402520FEF740B80A
:105290000A4988420BD107480838016821F40031D7
:1052A0000160BDE8104006486021FDF76FBD10BDEC
:1052B00000100140F0440258000002580044004031
:1052C000000C02582DE9F041B6B00746142130A871
:1052D000FBF74CF8C0216846FBF748F84A4902251D
:1052E00038680024474E4FF0070888425ED10020FE
:1052F0001F940121CDE900106846FEF7D9F908B1E5
:10530000FBF7B8FE3F481030016841F01001016022
:10531000006800F010003590306840F00100306007
:1053200030684FF4C061309130A900F00100CDE940
:1053300031543394CDE934803448FDF7DFFD344EE9
:10534000292234494FF48068304686E81600C6E9C1
:1053500003487461B461F46134627462FDF7B0F8BB
:1053600008B1FBF787FE2A4D2A222A4940237835C7
:10537000C7F880601831B763284685E81E016C6164
:10538000AC61EC612C626C62FDF79AF808B1FBF736
:1053900071FEFD6700220521AF632520FDF7D6FFD2
:1053A0002520FDF7C6FF36B0BDE8F0811A498842D6
:1053B000F9D100201E940221CDE900106846FEF7C5
:1053C00077F908B1FBF756FE0E480830016841F442
:1053D00000310160006800F400303590306840F022
:1053E0000800306030686021309130A900F008007A
:1053F000CDE931543394CDE934800848FDF77EFD82
:10540000D1E70000E04402580010014000000258BB
:10541000F80400241004024000440040000C02582C
:105420007047704770B50446D0F88800202801D036
:10543000022070BD39B332B3E06F0023216521250E
:10544000A4F85420A4F85620C4F89030C4F888502A
:10545000D8B11549C163E16F14480864E16F14487D
:10546000C864E06F036513462068E56F00F1280209
:10547000216D2846FDF706FA38B11021C4F89010C6
:105480002020C4F88800012070BD216840200862F7
:105490002068083050E8001F41F0800140E8001209
:1054A000002AF5D1002070BDAB5D0008EB5D00085F
:1054B000BB5C000870477047FEE70146C003C00BA5
:1054C0004FF0000005D14914A1F580610F2900D8E3
:1054D0000120704710B50446014612A001F050FDAE
:1054E0000A20FDF71DFB012080F310881448FFF708
:1054F000B3FE1448FFF7B0FE1348FCF75FF8FEF761
:10550000DBFE616811480160216881F30888104959
:105510000C60BFF34F8FBFF36F8F0068BDE8104082
:105520000047000054727920746F206A756D7020F6
:10553000746F206170703A202523780D0A000000F6
:10554000D003002464040024700100240800002417
:1055500008ED00E00A480021084B032210B5036063
:1055600001714171416102628161FBF7EBFF00282B
:1055700003D0BDE81040FBF77DBD10BD004C0258C4
:10558000700100240D4808B5016841F00201016076
:1055900000680022052100F0020000903820FDF78D
:1055A000D5FE3820FDF7C5FE002205213920FDF784
:1055B000CDFEBDE808403920FDF7BBBED8440258F7
:1055C0000D4808B5016841F080010160016801F0F3
:1055D00080010091016841F001010160016801F062
:1055E00001010091016841F008010160006800F0CC
:1055F0000800009008BD0000E04402580A4840F648
:10560000FF71084B042210B50360C160C0E901219D
:10561000FDF796FD002803D0BDE81040FBF72ABD3A
:1056200010BD0000004800589401002419480021D2
:105630002DE9F041164A0C24C0E90541C1614FF43F
:10564000612301629514416256141715816280E846
:10565000EC00FFF7CBFD08B1FBF70CFD0D48002176
:10566000FFF76BFB08B1FBF705FD0A480021FFF7C8
:105670003EFB08B1FBF7FEFC0648FFF7CBFA08B18A
:10568000FBF7F8FCBDE8F0410248FFF77FBB0000E4
:1056900000100140D00300241848002110B5164C1A
:1056A0000C224FF4E1330460C0E90131C160C0E96C
:1056B00004128161C161016241628162FFF796FD5E
:1056C00008B1FBF7D7FC0D480021FFF736FB08B106
:1056D000FBF7D0FC09480021FFF709FB08B1FBF7F5
:1056E000C9FC0648FFF796FA002803D0BDE8104031
:1056F000FBF7C0BC10BD000000440040640400245F
:10570000FEE7FEE7704700002DE9F047454D0446EF
:1057100089464FF0000A2868C04380070AD0414EEE
:10572000283E306820F080603060FDF703FD0746BA
:10573000B04608E00120BDE8F08700BFFDF7FAFCA5
:10574000C01B022867D8D8F800000001F6D42068F2
:1057500029684FF4FE0721F47C313E0241EA003013
:105760002860207AA389B4F804C040022D4D2D4949
:105770005B1E227CACF1010C1035091DA0F50070F8
:1057800080B2521ECCF3080C07EA034340EA0C0037
:10579000184306EA0262104328600868626920F034
:1057A000C000104308600A68A06922F0200202438A
:1057B0000A60281D0A6822F010020A6002684FF68B
:1057C000F873E4699A4342EAC40202600868B9F1D6
:1057D000000F40F010020A6011D00868B9F1010F03
:1057E00011D040F400100860D8F80000444640F0A2
:1057F0008060C8F80000FDF79DFC05460DE00868D4
:1058000040F40020EFE740F48010ECE7FDF792FC55
:10581000401B022801D903208DE720680001F5D53F
:10582000504688E7284402582DE9F047454D044684
:1058300089464FF0000A2868C04380070AD0414ECD
:10584000283E306820F080503060FDF773FC07463A
:10585000B04608E00120BDE8F08700BFFDF76AFC14
:10586000C01B022867D8D8F800008000F6D4208832
:1058700029684FF4FE0721F07C713E0241EA005096
:105880002860207AA389B4F804C040022D4D2D4928
:105890005B1E227CACF1010C1835091DA0F50070CF
:1058A00080B2521ECCF3080C07EA034340EA0C0016
:1058B000184306EA0262104328600868626920F40F
:1058C0004060104308600A68A06922F40072024335
:1058D0000A60281D0A6822F480720A6002684FF686
:1058E000F873E4699A4342EAC40202600868B9F1B5
:1058F000000F40F480720A6011D00868B9F1010FFE
:1059000011D040F080700860D8F80000444640F0A4
:105910008050C8F80000FDF70DFC05460DE0086852
:1059200040F48000EFE740F40000ECE7FDF702FCF4
:10593000401B022801D903208DE720688000F5D59F
:10594000504688E7284402587047FDF72FBC0000F6
:1059500070B59CB04C216846FAF708FD202113A8C9
:10596000FAF704FD0220FDF723FD22480024224916
:10597000026842F44042026002680A6842F0010292
:105980000A60096801F001011B9101688904FCD5D6
:10599000402501210A220092CDE90315022005913C
:1059A00004230B933C26CDE90904CDE90C600FAE2E
:1059B0000E900C2286E8150068461294FEF756FEFB
:1059C00008B172B6FEE708221A95CDE91625D30173
:1059D00013AA3F200321CDE9185382E813000421C4
:1059E00013A8FEF73BFB002801D072B6FEE71CB0FF
:1059F00070BD0000184802582C0400583348F0B518
:105A0000334A016841F470010160106800F00F0032
:105A1000072804D2106820F00F00C01D10602D4927
:105A200000202C4C10340B682B4D43F001030B600D
:105A300020600B682B400B60136803F00F03072BEB
:105A400004D9136823F00F03DB1D1360214C234A94
:105A50001834234B261D371D20601E4C214D283441
:105A60003060261D3860371D23603B1D35601C1DCE
:105A70003A60251D2E1D1860331D2260286032609B
:105A800018600A68134B184C22F4802260330A60B5
:105A9000186020686FF30F00B0F1005F03D2134964
:105AA0000120C1F808010B48D4300168C9040BD4A7
:105AB000026843F2D2010E4B42F480520260196038
:105AC000016821F480510160F0BD000088ED00E024
:105AD00000200052004402587FEDF6EA80020101E6
