:020000040800F2
:1000000078050024AD020008E72E0008492C0008FE
:10001000E52E0008BF080008213900080000000094
:100020000000000000000000000000002D3100086A
:10003000C108000800000000E92E00082F31000868
:10004000CB020008CB020008CB020008CB0200085C
:10005000CB020008CB020008CB020008CB0200084C
:10006000CB020008CB020008CB020008CB0200083C
:10007000CB020008CB020008CB020008CB0200082C
:10008000CB020008CB020008CB020008CB0200081C
:10009000CB020008CB020008CB020008CB0200080C
:1000A000CB020008CB020008CB020008CB020008FC
:1000B000CB020008CB020008CB020008CB020008EC
:1000C000CB020008CB020008CB020008CB020008DC
:1000D000CB020008CB020008CB020008CB020008CC
:1000E000CB020008CB02000800000000CB02000891
:1000F000CB020008CB020008CB020008CB020008AC
:10010000CB020008CB020008CB020008CB0200089B
:10011000CB020008CB020008CB020008CB0200088B
:10012000CB020008CB020008CB020008CB0200087B
:10013000CB020008CB020008CB020008CB0200086B
:1001400000000000000000000000000000000000AF
:10015000CB020008CB020008CB020008CB0200084B
:10016000CB020008CB020008CB020008CB0200083B
:10017000CB020008CB020008CB0200080000000000
:10018000CB020008CB020008CB020008CB0200081B
:10019000CB020008CB020008CB020008CB0200080B
:1001A000CB020008CB020008CB020008CB020008FB
:1001B000CB020008CB020008CB020008CB020008EB
:1001C000CB020008CB020008CB020008CB020008DB
:1001D000CB020008CB020008CB020008CB020008CB
:1001E000CB020008CB020008CB020008CB020008BB
:1001F000CB020008CB020008CB020008CB020008AB
:10020000CB020008CB020008CB020008CB0200089A
:10021000CB020008CB020008CB020008CB0200088A
:10022000CB020008CB020008CB020008000000004F
:10023000CB020008CB02000800000000CB0200083F
:10024000CB020008CB020008CB020008CB0200085A
:10025000CB020008CB020008CB020008CB0200084A
:10026000CB020008CB020008CB020008CB0200083A
:10027000CB020008CB020008CB02000800000000FF
:10028000CB020008CB020008CB02000800000000EF
:1002900000000000CB020008DFF80CD000F08EFA5E
:1002A00000480047F54300087805002407488047C8
:1002B0000748804707480047FEE7FEE7FEE7FEE7FE
:1002C000FEE7FEE7FEE7FEE7FEE7FEE7C9080008F7
:1002D000DD310008990200082DE9F05F0546002095
:1002E00092469B4688460646814640241BE02846A7
:1002F00041464746224600F069F853465A46C01A1E
:10030000914110D311461846224600F050F82D1A9C
:1003100067EB01084F4622460120002100F047F814
:1003200017EB00094E41201EA4F10104DFDC484612
:1003300031462A464346BDE8F09F40EA01039B0749
:1003400003D009E008C9121F08C0042AFAD203E04A
:1003500011F8013B00F8013B521EF9D27047D2B2AE
:1003600001E000F8012B491EFBD270470022F6E79E
:1003700010B513460A4604461946FFF7F0FF20461B
:1003800010BD30B50B46014600202022012409E0B3
:1003900021FA02F59D4205D303FA02F5491B04FA3E
:1003A00002F52844151EA2F10102F1DC30BD202A1D
:1003B00004DB203A00FA02F1002070479140C2F1BC
:1003C000200320FA03F3194390407047202A04DBEE
:1003D000203A21FA02F00021704721FA02F3D040BE
:1003E000C2F1200291400843194670472DE9FE4FA3
:1003F000804681EA0300C00F0C46009021F00041C6
:1004000023F00045B8EB0200A94105D24046214641
:1004100090461C460B46024623F00040104347D04E
:10042000270DC7F30A00C3F30A510290401A019046
:1004300040286BDAC3F3130040F4801B0098924607
:1004400020B10023D2EB030A63EB0B0B0198594652
:10045000C0F140025046FFF7AAFF06460D4650463F
:100460005946019A00F0BCF910EB080061410024E4
:1004700087EA115284EAE7731A4340D0009A62B3C4
:10048000019A012A4FEA075215DC001B61EB0201B9
:100490004FF0004202EA0752CDE90042001C41F54C
:1004A000801132462B4600F0BCF903B0BDE8F08F56
:1004B00040462146F9E7001B61EB0201001C41F5B3
:1004C000801300185B412018A2F5001747EB0301C9
:1004D00040EAD570B6196D4111E06D084FEA360655
:1004E00045EAC0754FEA0752001B61EB0201001C90
:1004F00041F5801149084FEA300000195141324658
:100500002B4603B0BDE8F04F00F07CB90098012203
:1005100040000023D0EB020263EBE0730098214619
:100520004FEAE074B8EB000061EB0401E9E783F007
:1005300000435BE781F0004158E72DE9FE4F81EA77
:10054000030404F0004421F0004100944FF0000B3C
:1005500023F0004350EA01045ED052EA03045BD06A
:10056000C3F30A54C1F30A552C44A4F2F3340194A2
:10057000A0FB0254C1F3130141F48011C3F3130330
:1005800043F4801301FB024400FB034E840A970AE4
:1005900044EA815447EA8357A4FB076802958D0A11
:1005A00005FB07854FEA932C04FB0C542705029D9D
:1005B0004FEA065847EA1637B5EB08056EEB070C0D
:1005C000870E920E47EA811742EA8312A7FB0201C7
:1005D000B6EB0B0164EB00042B0D43EA0C335E1801
:1005E00044EB1C50DA465146E7FB0201C5F3130405
:1005F0004FEA0B3343EA14534FEA0432019C43EAB7
:100600000603A4F10C040294009CCDE900B400F0B0
:1006100008F903B0BDE8F08F00200146F9E72DE9A5
:10062000F04D81EA030404F0004B21F0004514462C
:100630004FF0000A23F0004150EA050220D054EAAE
:1006400001021DD0C5F30A570246C5F31303C1F3D7
:100650001300C1F30A5640F4801543F48013A7EB4E
:100660000608101BD64608F2FD3873EB050002D3CE
:1006700008F1010801E092185B41B8F1000F03DABC
:1006800000200146BDE8F08D00204FF480110646A1
:1006900084460EE0171B73EB050705D3121B63EBB3
:1006A000050306434CEA010C49084FEA3000921852
:1006B0005B4150EA0107EDD152EA030012D082EA11
:1006C000040083EA0501084305D0101BAB4106D2A4
:1006D0000122002306E000224FF0004302E06FF009
:1006E000010253101AEB06004CEB085110EB0A0004
:1006F00041EB0B01BDE8F04D00F084B8C1F30A52A4
:10070000C1F3130140F2FF3341F480119A4202DA3F
:1007100000200146704740F233439A42A2F233422E
:1007200002DC5242FFF752BEFFF741BE30B5041E55
:1007300071F1000404DB4FF00044404264EB01011E
:10074000141E73F1000405DB1C464FF000435242B7
:1007500063EB0403994208BF904230BD70B5044674
:1007600001F000450020054304D14FF000456442EC
:1007700065EB010103F00045284305D118464FF011
:100780000043524263EB0003101B73EB010002D2E3
:100790004FF0004009E082EA040283EA01034FF0CF
:1007A00000501A4301D14FF0C0404FEA2062EFF3EE
:1007B000008162F31F6181F3008870BD064C074D14
:1007C00006E0E06840F0010394E807009847103421
:1007D000AC42F6D3FFF764FD9C460008BC46000817
:1007E000202A06DBCB17203A41FA02F043EAE073F5
:1007F00006E041FA02F3D040C2F1200291400843E2
:100800001946704710B5141E73F1000408DA401C35
:1008100041F1000192185B411A4301D120F001001F
:1008200010BD2DE9F04D92469B4611B1B1FA81F20F
:1008300002E0B0FA80F220329046FFF7B8FD04469D
:100840000F4640EA0A0041EA0B0153465A46084364
:1008500013D0114653EA010019D0C8F140025046A6
:10086000FFF7B4FD05460E46504659464246FFF78F
:100870009EFD084305D0012004E020463946BDE82E
:10088000F08D0020054346EAE0762C4337430A9872
:100890006305E40AA0EB08000022FD0A44EA47547D
:1008A0000A3002D500200146E9E701051019694127
:1008B000DDE9084500196941BDE8F04DA2E7FEE712
:1008C000704772B6FEE7000005480549083902681E
:1008D00042F00202026008688004FCD57047000004
:1008E0000C48025830B587B005460024009400F04B
:1008F00073F901460120B5F1016FCDE9021000D373
:100900000220059405A90190684600F0D1F907B0CE
:1009100030BD000030B584240D4BCD0744EA0020E3
:1009200007D0DC6824F4E664DC60DC68144304432C
:10093000DC6089070BD5D3F80C1121F4E661C3F80C
:100940000C11D3F80C1111430143C3F80C1130BD45
:1009500000200052CB431D4A9B0720D0CB070AD072
:10096000D36823F03003D360D3680343D360D368E4
:1009700043F08803D360890710D5D2F80C1121F019
:100980003001C2F80C11D2F80C110143C2F80C115D
:10099000D2F80C0140F08800C2F80C017047D16811
:1009A00021F03001D160D2F80C1121F03001C2F8F1
:1009B0000C11D1680143D160D2F80C110143C2F887
:1009C0000C11906940F010009061704700200052B7
:1009D000002A10B509D0002305E000BF10F8014B34
:1009E0005B1C01F8014B9342F8D310BD2DE9F04791
:1009F00004250E46804600F09BFB022E814600D166
:100A0000274DDFF8A0A0284C05EA0A0777B3D4F8F1
:100A1000100125EA00004000D0B1012E2AD0234960
:100A2000D4F81001084040F00040410026D0204991
:100A30008A6910EA0A0F42EA00028A6101D1606104
:100A400003E020F00040C4F814010120BDE8F08765
:100A5000B8F1FF3FDAD000F06BFBA0EB0901414594
:100A600002D8B8F1000FD1D10320EFE7206925EAC1
:100A70000000D1E70F4920690840D6E7012E4FF466
:100A8000803007D0D4F81011C90301D5C4F814017F
:100A90000020DBE72169C903FAD56061F8E70000AF
:100AA00004000080F0FF10E0002000520000EE97EC
:100AB0005C0100240000EE172DE9F04188B01646D5
:100AC0000F468046012080F31088002500F0F2F9DF
:100AD0004FF0FF3420B1002080F3108825462EE02F
:100AE000404602F0B2F830B14046FFF7FBFE10B1CD
:100AF00000F068F9EFE700241FE020216846FFF7C7
:100B000035FC301B00EE100AB8EEC01B9FED130B36
:100B100002F0AAFFBCEEC00B3919684610EE102A8D
:100B2000FFF70BFC01206A4608EB040100F062F9B4
:100B300010B16FF0010502E02034A642DDDC00F0C8
:100B400041F918B1002080F31088C51E002080F301
:100B5000108808B02846BDE8F081000000000000C1
:100B6000000040402DE9F041002406464AF6AA273D
:100B70004FEA04052DED028B9FED148B06EB44101C
:100B8000006881B2B94216D1000C2546001D00EE66
:100B9000100AB8EE400B20EE080B02F0EDFE01EE5D
:100BA000104AB8EE411B30EE010BBCEEC00B10EE4C
:100BB000100A84B2E2E7074806EB451206EB44113F
:100BC000C0E90012BDEC028BBDE8F081000000001E
:100BD0000000A03F000000240021A0F100634FF4BA
:100BE0000032934245D3A0F10163934241D322499D
:100BF0000144914203D321490144914201D2012190
:100C000037E01F490144914203D31E4901449142F8
:100C100001D202212DE01C490144914203D31B491A
:100C20000144914201D2032123E019490144914238
:100C300003D318490144914201D2042119E0164915
:100C40000144914203D315490144914201D2052147
:100C50000FE013490144914203D3124901449142E8
:100C600001D2062105E010490144914200D30F4909
:100C700007210846704700000000FEF70000EEF76D
:100C80000000FCF70000ECF70000FAF70000EAF7BC
:100C90000000F8F70000E8F70000F6F70000E6F7BC
:100CA0000000F4F70000E4F70000F2F700001E086F
:100CB0002DE9F05F0446414888460026017D012960
:100CC0001AD0012202758146B246C0F818A02079D8
:100CD000C00706D001214CF25030FFF787FE00B16B
:100CE0000126207980070AD502214CF25030FFF707
:100CF0007DFE20B101265DE00220BDE8F09F6EBBC5
:100D000020682F4D012807D04FF0FF31C8F80010A0
:100D1000A76840F2047B48E061682069FFF71AFE8B
:100D20002079C0070AD001214CF25030FFF75EFE57
:100D300000B10126E86820F00800E860207980070B
:100D400038D502214CF25030FFF750FE00B1012699
:100D5000D5F80C0120F00800C5F80C012AE0226942
:100D600038466168FFF7D6FD2079C00709D0012118
:100D70004CF25030FFF73AFEE968064621EA0B01D3
:100D8000E960207980070BD502214CF25030FFF743
:100D90002DFED5F80C11064621EA0B01C5F80C1101
:100DA00016B1C8F8007005E07F1CD4E902010844C0
:100DB000B842D4D8304689F814A09EE75C010024DC
:100DC000002000520A48C16841F00101C160C168B9
:100DD000C9070BD0D0F80C1141F00101C0F80C117B
:100DE000D0F80C01C00701D00020704701207047E7
:100DF000002000522DE9F05F2C48144608250E46CD
:100E0000027D012A08D001230375A1F100621F05AC
:100E1000BA4204D2012707E00220BDE8F09FA6F104
:100E20000161B9420DD202274FF0000A8146C0F895
:100E300018A04CF2503B39465846FFF7D7FD10B189
:100E400027E00120E9E7DFF86880012F404623D042
:100E5000D0F80C1141F00201C0F80C11BFF36F8FF4
:100E6000BFF34F8F01CC6D1E15F0FF0501C6F9D100
:100E7000BFF36F8FBFF34F8F39465846FFF7B6FD6C
:100E8000012F41460DD0D1F80C2122F00202C1F809
:100E90000C2189F814A0C0E7C16841F00201C160CB
:100EA000DCE7CA6822F00202CA60F2E75C010024B3
:100EB000002000520D480E4A0E49C368DB0704D0DB
:100EC00042604160C368DB070BD1D0F80C31DB070F
:100ED00009D0C0F80421C0F80411D0F80C01C007F3
:100EE00001D0012070470020704700000020005210
:100EF00023016745AB89EFCD2DE9F84F03247D4DE4
:100F000000234FF001094FF0B04B4FF00F0AE9E01A
:100F100009FA03F73A4076D00E7906F00306012E5F
:100F200001D0022E18D1D0F808C04FEA430ECE6887
:100F300004FA0EF82CEA080C06FA0EF646EA0C063D
:100F40008660D0F804C00E792CEA070CC6F30016B0
:100F50009E4046EA0C0646600E79F643B6070BD073
:100F6000C6684FEA43088F6804FA08FC26EA0C06B4
:100F700007FA08F73743C7600E7906F00306022E1A
:100F800012D1DE080F694FEA437C00EB8606B646B5
:100F9000366A4FEADC6C0AFA0CF807FA0CF726EA14
:100FA00008063743CEF820700F7906684FEA4308E9
:100FB00007F0030704FA08FC07FA08F726EA0C060C
:100FC000374307604E6816F4403F1CD04A4E3768DE
:100FD00047F00207376036689F0706F00206009662
:100FE00023F0030606F1B046B6463F0FD6F8086474
:100FF000DFF808810AFA07FC404526EA0C0603D10F
:101000004FF0000C41E06CE0DFF8F4C0604502D125
:101010004FF0010C39E0DFF8ECC0604502D14FF031
:10102000020C32E0DFF8E0C0604502D14FF0030C63
:101030002BE0DFF8D8C0604502D14FF0040C24E06B
:10104000DFF8CCC0604502D14FF0050C1DE0DFF8A1
:10105000C4C0604502D14FF0060C16E0DFF8B8C0FE
:10106000604502D14FF0070C0FE0DFF8B0C06045DB
:1010700002D14FF0080C08E0DFF8A4C0604502D1AF
:101080004FF0090C01E04FF00A0C0CFA07FC4CEA97
:10109000060CCEF808C44F68DBF80060FF0226EAB1
:1010A000020600D516435F46CBF80060D1F804C0B5
:1010B000DBF804605FEA8C2C26EA020600D51643B2
:1010C0007E606E684F6826EA0206BF0300D51643AD
:1010D0006E602E684F6826EA0206FF0300D51643AD
:1010E0002E605B1C0A6832FA03F67FF411AFBDE88C
:1010F000F88F000080000058F444025800000258A5
:101100000004025800080258000C0258001002584F
:101110000014025800180258001C025800200258FF
:101120000024025801480068000C70470010005C61
:101130000148806870470000200000240248816850
:10114000027811448160704720000024032010B50C
:1011500000F0C6F801F0A0F80F4A104914681368AF
:10116000C4F3032203F00F038A5CC95C02F01F0280
:1011700001F01F01D0400A4A20FA01F1116009492B
:1011800008600F2000F010F808B1012010BD00F039
:1011900079F8002010BD0000184402588C46000861
:1011A000300000242C00002470B50D4D0446287832
:1011B000A0B14FF47A71B1FBF0F00A490968B1FBB4
:1011C000F0F001F0C6FB48B9102C07D200222146EE
:1011D000501E00F065F800206C6070BD012070BDED
:1011E000200000242C000024154BF0B5083B427869
:1011F00013491A600B680A1F23F001030B60436850
:101200001360057BC67A827A437B2D07847B45EA8F
:101210000665C77B90F809C0067A90F800E045EAB9
:10122000C24040EA834040EA444040EA074040EA86
:101230000C2040EA460040EA0E000860F0BD0000C5
:10124000A0ED00E0BFF35F8F044800210368034A6C
:1012500023F48033036070321160704724ED00E0A6
:10126000074A40F00100064970321060086840F4F7
:1012700080300860BFF34F8FBFF36F8F704700005F
:1012800024ED00E0054808B5016841F00201016065
:10129000006800F00200009008BD0000F44402580D
:1012A0000E4BF0B41B680D46C3F30223C3F10706CF
:1012B000042E00D90426191D072901D2002300E0BD
:1012C000DB1E012404FA06F19C40491E2940641EDD
:1012D000994014402143F0BC02F03ABB0CED00E011
:1012E000064900F0070210B54FF6FF040868044BEA
:1012F000204040EA02201843086010BD0CED00E0D9
:101300000000FA05134970B50A68D243520705D5A3
:10131000096801F00701814213D118E00A6822F040
:10132000070202430A60FFF703FF0A4D4FF47A7683
:101330000446083D07E000BFFFF7FAFE001BB0427D
:1013400001D9012070BD2868C0438004F4D4002076
:1013500070BD00000C48025810B500F057FF054959
:101360000968054AC1F30211515C01F01F01C84030
:1013700010BD0000204402588C460008494930B591
:10138000484C0B1D0A68143409681D68246802F073
:101390000303C5F30012C1F30531C4F3CC040029E3
:1013A00014FB02F200EE102AF8EE400A75D03F4A14
:1013B0009FED3D1AB7EE000A6BB1DFED3D1A012B30
:1013C00001D0022B64D002EE101A1168F8EE422A06
:1013D00081EEA22A21E0334C283C23689B0612D5DB
:1013E000344B246801EE901A1168C4F3C104F8EE7E
:1013F000612AE34001EE903AC1F30801F8EE611A68
:1014000081EEA22A0BE001EE901ADFED2B2A00BF3D
:10141000F8EE611A116882EEA12AC1F3080101EE0B
:10142000901A1168F8EE611A40EE811A71EE800A86
:1014300062EE200AC1F3462101EE101AB8EE411AFD
:1014400031EE001AC0EE811ABCEEE11A80ED001AEE
:101450001168C1F3064101EE101AB8EE411A31EEDF
:10146000001AC0EE811ABCEEE11A80ED011A116873
:10147000C1F3066101EE101AB8EE411A31EE000A0E
:1014800080EE801ABCEEC10A80ED020A30BD04E095
:1014900001EE901ADFED092ABAE7002101604160F0
:1014A0008160F3E7284402580000003938440258AC
:1014B0000024744A0090D0030024744C20BCBE4B1E
:1014C000494930B5484C0B1D0A681C3409681D6831
:1014D000246802F00303C5F30022C1F30551C4F3ED
:1014E000CC04002914FB02F200EE102AF8EE400AA8
:1014F00075D03F4A9FED3D1AB7EE000A6BB1DFEDA4
:101500003D1A012B01D0022B64D002EE101A116893
:10151000F8EE422A81EEA22A21E0334C283C2368CF
:101520009B0612D5344B246801EE901A1168C4F35F
:10153000C104F8EE612AE34001EE903AC1F30801DC
:10154000F8EE611A81EEA22A0BE001EE901ADFEDAF
:101550002B2A00BFF8EE611A116882EEA12AC1F3AE
:10156000080101EE901A1168F8EE611A40EE811A36
:1015700071EE800A62EE200AC1F3462101EE101AD4
:10158000B8EE411A31EE001AC0EE811ABCEEE11A33
:1015900080ED001A1168C1F3064101EE101AB8EE91
:1015A000411A31EE001AC0EE811ABCEEE11A80ED4C
:1015B000011A1168C1F3066101EE101AB8EE411A62
:1015C00031EE000A80EE801ABCEEC10A80ED020AFC
:1015D00030BD04E001EE901ADFED092ABAE70021E0
:1015E000016041608160F3E728440258000000393F
:1015F000404402580024744A0090D0030024744CE4
:1016000020BCBE4B2DE9FE4F0546DFF8E48350F8C1
:10161000081B0024F64FC943019005F12800264617
:1016200008F12408009008011DD4A86E50B1B0F54F
:10163000801F0CD0B0F5001F0ED0B0F5401F1ED09B
:1016400001240FE0386840F40030386017E001985A
:10165000022101F04BFC03E00098022101F0D6FCCE
:1016600004000CD026462888C043C00523D4A86DAA
:1016700005281ED2DFE800F00C11161B1B00AA6E15
:10168000D8F8001021F440111143C8F80010EAE71F
:10169000386840F40030386009E00198002101F01A
:1016A00025FC03E00098002101F0B0FC044674B171
:1016B00000E0012426462888C043800528D4E86D30
:1016C00080281ED00CDC90B140280ED114E0AA6D09
:1016D000D8F8001021F007011143C8F80010EAE71C
:1016E000C02813D0B0F5807F10D001240FE03868F7
:1016F00040F40030386009E00198002101F0F6FB69
:1017000003E00098002101F081FC04469CB12646CC
:101710002888DFF8DC92C04309F12C0940052CD45D
:10172000D5F8A800B0F5800F20D00DDCA0B1B0F541
:10173000001F0FD115E0EA6DD8F8001021F4E07118
:101740001143C8F80010E3E7B0F5C00F13D0B0F5AF
:10175000000F10D001240FE0386840F400303860EA
:1017600009E00198002101F0C1FB03E0009800218D
:1017700001F04CFC04467CB126462888C043000595
:101780002DD4D5F8AC00B0F1007F21D00EDCA8B18B
:10179000B0F1807F10D116E0D5F8A820D9F800105C
:1017A00021F460011143C9F80010E6E7B0F1407F71
:1017B00013D0B0F1806F10D001240FE0386840F4EE
:1017C0000030386009E00198002101F08FFB03E050
:1017D0000098002101F01AFC044674B126462868DE
:1017E000C04380011FD4E86CD8B110280FD0202846
:1017F00012D0302815D0012414E0D5F8AC20D9F847
:10180000001021F0E0611143C9F80010E7E73868E3
:1018100040F40030386004E00198022101F066FBDA
:10182000044674B126462888C043C0042BD4286ED1
:10183000B0F5005F20D00DDCA0B1B0F5805F0FD116
:1018400015E06B48EA6C2030016821F0300111434B
:101850000160E8E7B0F5405F13D0B0F5804F10D0DD
:1018600001240FE0386840F40030386009E0019846
:10187000002101F03BFB03E00098002101F0C6FBD2
:1018800004468CB126462888C043800429D4686E5B
:10189000B0F5403F23D010DC08B3B0F5803F14D042
:1018A000B0F5003F0FD115E02A6ED8F8001021F4F2
:1018B000E0411143C8F80010E5E7B0F5802F0ED0E5
:1018C000B0F5A02F0BD001240AE00198012101F00E
:1018D0000DFB03E00098012101F098FB044694B150
:1018E00026462888C04340042AD4D5F8B000B0F179
:1018F000405F23D010DC08B3B0F1805F14D0B0F1AA
:10190000005F0FD115E06A6ED8F8001021F4E021D5
:101910001143C8F80010E4E7B0F1804F0ED0B0F1E9
:10192000A04F0BD001240AE00198012101F0DEFA5A
:1019300003E00098012101F069FB044674B12646DA
:101940002888C04300041FD4286FD8B1B0F1805F4D
:101950000ED0B0F1005F10D0012414E0D5F8B02013
:10196000D9F8001021F0E0411143C9F80010E7E771
:10197000386840F40030386004E00198012101F03B
:10198000B5FA044674B126462868C043C0011ED487
:10199000A86CD0B101280ED0022811D0032814D091
:1019A000012413E02A6FD8F8001021F040511143B0
:1019B000C8F80010E8E7386840F40030386004E008
:1019C0000198022101F092FA0446ACB1264628683B
:1019D000DFF81CB0C043ABF11C0B400252D40548E9
:1019E000016841F480710160FFF7A2FB824611E0BB
:1019F0002C44025800480258FA48AA6C016821F0A9
:101A0000030111430160E2E7FFF792FBA0EB0A003C
:101A1000642835D8F4480068C005F5D58CBBDFF8DC
:101A2000C4A3B5F8B4100AF1240ADAF8000001F4EE
:101A3000407100F44070884211D0DAF80010DAF8F2
:101A4000002021F4407142F48032CAF80020DAF814
:101A5000002022F48032CAF80020CAF80010D5F81D
:101A6000B400B0F5807F1AD1FFF762FB029012E05C
:101A7000FFF75EFB0299411A41F2883081420AD990
:101A8000032426462878DFF85CA3C0430AF1080A3D
:101A9000C00721D03CE0DAF800008007E8D5D5F88F
:101AA000B410C1F30120032858460DD0016821F479
:101AB0007C510160B5F8B420DAF80010C2F30B02D3
:101AC0001143CAF80010DDE7C84A036802EA1112A0
:101AD00023F47C511143ECE7E86F182816D005DC9D
:101AE000A0B1082808D0102804D10AE020280DD081
:101AF00028280BD001240AE00198012101F0F6F911
:101B000003E00098012101F081FA044664B1264601
:101B10002878C04380071ED4A86F062819D2DFE8B2
:101B200000F0160C11161616EA6FDAF8001021F004
:101B300038011143CAF80010EAE70198012101F0C9
:101B4000D5F903E00098012101F060FA04467CB168
:101B500000E0012426462878C04340071FD4D5F86A
:101B60009400062819D2DFE800F0160C111616169C
:101B7000AA6FDAF8001021F007011143CAF800102B
:101B8000E9E70198012101F0B1F903E00098012192
:101B900001F03CFA0446A4B100E00124264628786E
:101BA000C04380062BD4D5F89000B0F1405F24D01C
:101BB00011DC10B3B0F1805F15D0B0F1005F10D12F
:101BC00016E0D5F89420D9F8001021F00701114350
:101BD000C9F80010E3E7B0F1804F0ED0B0F1A04F8C
:101BE0000BD001240AE00198002101F07FF903E005
:101BF0000098022101F00AFA044694B1264628789A
:101C0000C04340062BD4D5F89C00B0F5406F24D0DB
:101C100011DC10B3B0F5806F15D0B0F5006F10D1A6
:101C200016E0D5F89020DAF8001021F0E0411143D9
:101C3000CAF80010E3E7B0F5805F0ED0B0F5A05F02
:101C40000BD001240AE00198002101F04FF903E0D4
:101C50000098022101F0DAF9044694B1264628786A
:101C6000C04300062BD4D5F8A000B0F5C04F24D057
:101C700011DC10B3B0F5005F15D0B0F5804F10D176
:101C800016E0D5F89C20D9F8001021F4E05111435A
:101C9000C9F80010E3E7B0F5004F0ED0B0F5204FC3
:101CA0000BD001240AE00198002101F01FF903E0A4
:101CB0000098022101F0AAF9044654B1264628787A
:101CC000C04300071ED4D5F88400B0F5805F0AD069
:101CD0000FE0D5F8A020D9F8001021F4604111439D
:101CE000C9F80010EBE70098022101F08FF900B16C
:101CF0000126D5F88420DAF8001021F44051114370
:101D0000CAF800102878C043C00613D4D5F898004C
:101D1000B0F5807F05D10098022101F077F900B17C
:101D20000126D5F89820D9F8001021F4407111430C
:101D3000C9F800102868C043000316D4D5F8A400E1
:101D400038B1B0F5803F09D0B0F5003F0BD0012489
:101D50000AE00198002101F0C9F803E0009802218F
:101D600001F054F904468CB126462868C04340036C
:101D700022D4D5F88800B0F5801F11D0B0F5001F2F
:101D800013D0B0F5401F15D0012414E0D5F8A420DD
:101D9000D9F8001021F440311143C9F80010E4E7EC
:101DA000386840F40030386004E00098012101F008
:101DB0002DF904465CB126462868C043C00323D4ED
:101DC000286DA8B1B0F5803F17D001241BE0D5F8ED
:101DD0008820DAF8001021F440111143CAF80010ED
:101DE000EAE700004C44025800480258CFFFFF00C9
:101DF000386840F40030386004E00198022101F0B6
:101E000075F80446E4B126462868C043800005D42E
:101E10000098022101F0FAF800B101262868C043B9
:101E200080031BD4D5F88000B0B1B0F5807F0FD00F
:101E3000B0F5007F10D0B0F5407F0DD001240CE04C
:101E40005A482A6D016821F4803111430160DBE7B3
:101E5000386840F400303860ECB326462868C04348
:101E6000C00207D46A6FD8F8001021F00041114376
:101E7000C8F800102868C043C00008D4D5F8B820BE
:101E8000DBF8001021F480411143CBF800102868E2
:101E9000C043800207D4EA6ED8F8001021F08071A8
:101EA0001143C8F800102868C04340000CD4DBF888
:101EB000001021F40041CBF80010DBF80010D5F839
:101EC000BC201143CBF800102868C04308D4374821
:101ED0006A6D016800E018E021F040511143016093
:101EE0002868C043000208D4D5F88C20DAF8001026
:101EF00021F440011143CAF8001028790024C0439E
:101F000000F0010020430AD00FE0D5F88020DAF875
:101F1000001021F440711143CAF800109EE70198A7
:101F2000002100F0E3FF00B106462879C04300F02D
:101F30000200204305D10198012100F0D7FF00B134
:101F400006462879C04300F00400204305D10198DB
:101F5000022100F0CBFF00B106462879C04300F013
:101F60000800204305D10098002101F04FF800B18E
:101F700006462879C04300F01000204305D10098A0
:101F8000012101F043F800B106462879C04300F072
:101F90002000044304D10098022101F037F800B971
:101FA00016B10120BDE8FE8F0020FBE74C4402582B
:101FB0002DE9F05F04000F467ED0DFF83882D8F8B4
:101FC000000000F00F00B8420CD2D8F8001021F049
:101FD0000F013943C8F80010D8F8000000F00F00D6
:101FE000B84269D12078844D40070AD52069296814
:101FF00001F07001884204D9296821F07001014381
:10200000296020787C4E361D00070AD5606931684A
:1020100001F07001884204D9316821F07001014358
:1020200031602078C0060AD5A069316801F4E0610A
:10203000884204D9316821F4E0610143316020789D
:10204000DFF8B4B180060BF1080B0CD5E1695846F6
:10205000DBF8002002F07002914204D9026822F0FD
:1020600070020A430260207880070AD5E068296878
:1020700001F00F01884204D9296821F00F010143C2
:1020800029602078C0073ED05B49A26828681839CB
:1020900020F47060104328606068022818D003287C
:1020A00019D00968012819D0490700294ADADFF850
:1020B00048A1AAF1080A00E044E0DAF8002022F082
:1020C00007020243CAF80020FFF732F8814612E007
:1020D00009688903E9E709688901E6E7C905E4E7D2
:1020E000FFF726F8A0EB090141F28830814202D9BE
:1020F0000320BDE8F09F6168DAF8000000F03800C6
:10210000B0EBC10FECD1207880070AD5E0682968D0
:1021100001F00F01884204D2296821F00F01014328
:102120002960D8F80010404601F00F01B9420BD9E0
:10213000016821F00F0139430160006800F00F00D1
:10214000B84201D00120D4E7207840070AD52069A1
:10215000296801F07001884204D2296821F07001D9
:1021600001432960207800070AD56069316801F0D1
:102170007001884204D2316821F07001014331605E
:102180002078C0060AD5A069316801F4E061884270
:1021900004D2316821F4E061014331602078800687
:1021A0000CD5E1695846DBF8002002F0700291423C
:1021B00004D2026822F070020A43026000F06CF858
:1021C0000E492A682B68C2F3032203F00F038A5CCE
:1021D000C95C02F01F0201F01F01D040084A20FA3A
:1021E00001F111600749086007480068BDE8F05F29
:1021F000FEF7DABF00200052184402588C4600084F
:10220000300000242C0000242400002430B500F00D
:1022100043F80B4A0B490C4B15681468C5F30322AD
:1022200004F00F048A5C095D02F01F0201F01F0137
:10223000D040064A20FA01F119601060084630BD0E
:10224000184402588C460008300000242C0000245A
:1022500000B5FFF7DBFF05490968054AC1F3021124
:10226000515C01F01F01C84000BD00001C44025831
:102270008C46000800B5FFF7C9FF05490968054A03
:10228000C1F30221515C01F01F01C84000BD0000F4
:102290001C4402588C460008454970B545480968F9
:1022A000434B103B11F0380208D00111082A03D02B
:1022B000102A0BD0182A0BD0084670BD1968890661
:1022C000FBD51968C1F3C101C84070BD3A4870BD63
:1022D0003749374D18310C1D24350A6809682668BE
:1022E0002D6802F0030406F00102C1F30511C5F3E5
:1022F000CC0515FB02F200EE102AB8EE400AE9B355
:102300002F4ADFED2E0AB7EE001A6CB1DFED2D1A61
:10231000012C01D0022C43D002EE101A1068F8EE06
:10232000422A81EEA22A1EE01C68A40611D51B6871
:1023300001EE901A1168C3F3C103F8EE612AD84088
:1023400001EE900AC1F30800F8EE611A81EEA22AAC
:102350000BE001EE901ADFED1C2A00BFF8EE611AC7
:10236000106882EEA12AC0F3080001EE900AF8EE90
:10237000611A40EE201A31EE810A00E015E022EEEB
:10238000000A1068C0F34620401C00EE900AF8EEE8
:10239000600A80EE201ABCEEC10A10EE100A70BD71
:1023A00001EE901ADFED092AD8E7002070BD000089
:1023B000104402580090D00340787D01000000399D
:1023C000304402580024744A0024744C20BCBE4B94
:1023D0002DE9F05F04007DD0FF4F2078FE4D1837C7
:1023E000DFF8F493103DC00748D0D9F800003968F1
:1023F00000F03800102815D0182803D101F0030090
:1024000002280FD06068B0F5803F12D010B1B0F54F
:10241000A02F18D0286820F480302860286820F485
:10242000802009E02868800328D560680028D2D081
:1024300024E0286840F480302860606888B1FEF7A6
:1024400077FE064609E0286840F480202860F0E71F
:10245000FEF76EFE801B64286FD828688003F7D5CE
:102460000CE0FEF765FE064605E000BFFEF760FEE5
:10247000801B6428F0D828688003F7D4207841F2C4
:102480000308D54E0C3E800769D5D9F8000039689D
:1024900010F038000ED0182801D188070AD0E06863
:1024A00090B3296821F0190101432960FEF740FE2D
:1024B000824631E02868400702D5E06800288AD0CB
:1024C000E168286820F0190008432860FEF730FE14
:1024D000824607E0DFE000BFFEF72AFEA0EB0A001D
:1024E0000228B9D828684007F6D500BFFEF71AFEC3
:1024F00040451BD82069402812D0316821F47C3136
:1025000041EA003030602AE018E000BFFEF710FE1C
:10251000A0EB0A0002289FD828684007F6D5E5E717
:10252000306820F47C3040F40030EBE7207C3168E8
:1025300021F0FE4141EA0060E4E70DE1286820F067
:1025400001002860FEF7F4FD824605E0FEF7F0FD8D
:10255000A0EB0A0002288DD828684007F6D420781E
:10256000C0065DD5D9F80000DFF86CB2396800F01C
:102570003800ABF1040B082810D0182803D101F063
:10258000030001280AD0E0690028286838D040F00C
:1025900080002860FEF7CCFD824623E02868C00555
:1025A00023D5E069802876D11FE0206A202821D039
:1025B000316821F0F84141EA8060306030E000BFCE
:1025C00094F82010DBF8002022F07C5242EA0161EE
:1025D000CBF8001024E000BFFEF7AAFDA0EB0A0034
:1025E000022898D82868C005F6D5FEF79BFD40451F
:1025F000E6D8DAE7306820F0F84040F08040DCE7C9
:1026000020F080002860FEF793FD064605E000BF3D
:10261000FEF78EFD801B02289DD82868C005F7D4E0
:102620002078000729D56C4861696430002980460C
:10263000016811D041F001010160FEF779FD064605
:1026400005E000BFFEF774FD801B0228C9D8D8F84A
:1026500000008007F6D510E021F001010160FEF7CF
:1026600067FD064605E000BFFEF762FD801B0228FD
:1026700072D8D8F800008007F6D42078800623D5D9
:10268000A0690028286810D040F480502860FEF728
:102690004FFD064605E036E1FEF74AFD801B0228A5
:1026A0005AD828688004F7D50EE020F480502860BE
:1026B000FEF73EFD064604E0FEF73AFD801B0228C9
:1026C0004AD828688004F7D4207840074FD5DFF82F
:1026D0000C81D8F8001041F48071C8F80010FEF7A2
:1026E00027FD064605E000BFFEF722FD801B64289B
:1026F00032D8D8F80000C005F6D5374EA06860364D
:1027000001280AD008B1052813D0306820F0010054
:102710003060306820F0040002E0306840F00100D2
:102720003060A06841F2883A90B1FEF701FD804622
:102730000AE0306840F004003060EEE7FEF7F8FC95
:10274000A0EB0801514507D830688007F6D50EE0A8
:10275000FEF7EEFC804607E084E000BFFEF7E8FCF1
:10276000A0EB080151457DD830688007F6D4606A37
:10277000B0B3DFF86480D9F8001008F120084FF6F4
:10278000F87B08F10409C1F3C2010329A8F1040A86
:1027900069D00228286820F08070286003D0FEF7F6
:1027A000C7FC044684E0FEF7C3FC064605E000BF14
:1027B000FEF7BEFC801B022877D828688001F7D47A
:1027C000E26A40F2F331386854F8283F884340EA1F
:1027D00002101843386004E01044025800480258C0
:1027E000B5E0217B434622894FF4FE0C208A4FF04E
:1027F000FE474902267D521E401EA1F50071C2F31C
:1028000008088AB2761E0CEA004042EA0802024337
:10281000504607EA06610A431A60DAF8002022F0FF
:102820000102CAF80020D9F80020266A22EA0B0229
:1028300042EAC602C9F80020DAF80010A26921F0C5
:102840000C011143CAF800100168E26921F002018D
:1028500011430160016841F480310160016841F475
:10286000003101E021E027E00160016841F48021AE
:102870000160016841F001010160286840F080704A
:102880002860FEF755FC044605E000BFFEF750FC4B
:10289000001B022809D828688001F7D557E000BF3F
:1028A000FEF746FC001B022802D90320BDE8F09F7A
:1028B00028688001F4D44AE039680128D8F800007B
:1028C00021D0A26A01F0030393421CD1E26AC1F352
:1028D00005118A4217D1216BC0F30802491E8A42B2
:1028E00011D1616BC0F34622491E91420BD1A16BFD
:1028F000C0F30642491E914205D1E16BC0F3066068
:10290000491E814201D00120D0E7A16C4E46D9F882
:102910000000C0F3CC00814219D0DAF8000055461F
:1029200020F00100CAF80000FEF702FC4FEA0007A1
:10293000FEF7FEFBB842FBD0A26C306820EA0B0029
:1029400040EAC2003060286840F0010028600020A2
:10295000ACE7401EB0F1807F10B501D3012010BD5F
:102960004FF0E02460610F21601700F0F1FF0020BC
:10297000A0610721216110BD30B590F884100129B4
:1029800018D0012280F884202421C0F88810002269
:10299000202401680B680D6823F0005325F0010521
:1029A0000D60426601680B60C0F8884080F88420A2
:1029B000104630BD022030BD70B5044690F884004A
:1029C00001281DD0012284F884202420C4F8880026
:1029D00020680568026822F00102026020688268AF
:1029E00022F060620A438260204600F073FC226895
:1029F000202100201560C4F8881084F8840070BD80
:102A0000022070BD70B5044690F8840001281DD0E6
:102A1000012284F884202420C4F8880020680568F6
:102A2000026822F0010202602068826822F060429F
:102A30000A438260204600F04DFC226820210020DD
:102A40001560C4F8881084F8840070BD022070BD41
:102A500010B5040003D0D4F8880010B107E00120BD
:102A600010BD002084F88400204600F027F82420C0
:102A7000C4F888002068016821F001010160A06AA3
:102A800010B1204600F048FC204600F029FD012846
:102A9000E6D02068416821F4904141602068816857
:102AA00021F02A0181602068016841F00101016084
:102AB0002046BDE8104000F093BC0000F0B5B7B070
:102AC0000446142130A8FDF751FCC0216846FDF7EB
:102AD0004DFC2D490226206807272A4D00248842F4
:102AE00024D100201F940121CDE900106846FEF793
:102AF00089FD08B1FDF7E5FE22481030016841F07C
:102B000010010160006800F010003590286840F066
:102B100001002860286830A900F0010035904FF4CA
:102B2000C06030901948CDE9316425E018498842E9
:102B300026D100201E940221CDE900106846FEF740
:102B400061FD08B1FDF7BDFE0E480830016841F493
:102B500000310160006800F400303590286840F0D2
:102B600008002860286830A900F00800359060202F
:102B700030900848CDE93164CDE93347FEF7BCF920
:102B800037B0F0BDE0440258001001400000025888
:102B900000440040000C02582DE9F8430446D0F8E8
:102BA0008800984616460D46202802D00220BDE82F
:102BB000F883A5B19EB10021C4F890102120C4F87B
:102BC00088001834FEF7B4FA814654F8100CA68732
:102BD000E6872027183CB0F5805F02D003E0012093
:102BE000E5E7206910B12E46002510E000260EE032
:102BF0008021204600F04AFEC0B9DEB116F8010B74
:102C000021688862B4F85600401EA4F85600B4F853
:102C100056004B464FF00002CDF800800028E7D167
:102C20004FF04001204600F031FE48B1C4F88870F2
:102C30000320BCE735F8020B2168C0F30800E0E789
:102C4000C4F888700020B2E7FEE70146C003C00B5D
:102C50004FF0000005D14914A1F580610F2900D87B
:102C60000120704770B5044601460DA001F0ACFB91
:102C7000012080F310880F4D6068214628600EA067
:102C800001F0A2FB206880F30888291D0F4809681D
:102C900041F0006101602868BDE870400047000015
:102CA0006A756D7020746F206170703A20252378EA
:102CB0000D0A0000080000246A756D702025237835
:102CC0002073756363657373200D0A0008ED00E0DF
:102CD00010B51C4C206801F06BFB20B11AA001F06C
:102CE00073FB206821E0A06801F062FB58B11CA0D2
:102CF00001F06AFB21A001F067FBA068206001F0F1
:102D000083FCA06811E0E06801F052FB78B114A0E8
:102D100001F05AFB1EA001F057FB23A001F054FB69
:102D2000E068206001F070FCE068FFF79BFF0CA0FA
:102D300001F04AFB16A001F047FBBDE810401FA0C0
:102D400001F042BB0C00002443757272656E744141
:102D5000505020436865636B204F4B2E0D0A0000D6
:102D600043757272656E7441505020436865636BA1
:102D7000204661696C65642E0D0A00004150503197
:102D800020436865636B204F4B2E0D0A0000000046
:102D90004150503120436865636B204661696C6522
:102DA000642E0D0A00000000415050322043686537
:102DB000636B204F4B2E0D0A000000004150503233
:102DC00020436865636B204661696C65642E0D0A5B
:102DD000000000000D4808B5016841F08001016065
:102DE000016801F080010091016841F0010101607A
:102DF000016801F001010091016841F008010160E2
:102E0000006800F00800009008BD0000E04402588F
:102E1000194800212DE9F041164A0C24C0E905416A
:102E2000C1614FF461230162951441625614171574
:102E3000816280E8EC00FFF70BFE08B1FDF741FD71
:102E40000D480021FFF7DEFD08B1FDF73AFD0A4805
:102E50000021FFF7B1FD08B1FDF733FD0648FFF78C
:102E60008BFD002803D0BDE8F041FDF72ABDBDE889
:102E7000F0810000001001403400002418480021B7
:102E800010B5164C0C224FF4E1330460C0E9013157
:102E9000C160C0E904128161C16101624162816265
:102EA000FFF7D6FD08B1FDF70CFD0D480021FFF737
:102EB000A9FD08B1FDF705FD09480021FFF77CFDDC
:102EC00008B1FDF7FEFC0648FFF756FD002803D0C9
:102ED000BDE81040FDF7F5BC10BD00000044004007
:102EE000C8000024FEE7FEE7704700002DE9F04728
:102EF000454D044689464FF0000A2868C0438007C4
:102F00000AD0414E283E306820F080603060FEF7E5
:102F10000FF90746B04608E00120BDE8F08700BF82
:102F2000FEF706F9C01B022867D8D8F80000000198
:102F3000F6D4206829684FF4FE0721F47C313E0264
:102F400041EA00302860207AA389B4F804C0400226
:102F50002D4D2D495B1E227CACF1010C1035091D55
:102F6000A0F5007080B2521ECCF3080C07EA0343B0
:102F700040EA0C00184306EA026210432860086821
:102F8000626920F0C000104308600A68A06922F05E
:102F9000200202430A60281D0A6822F010020A601B
:102FA00002684FF6F873E4699A4342EAC402026089
:102FB0000868B9F1000F40F010020A6011D00868EB
:102FC000B9F1010F11D040F400100860D8F80000EA
:102FD000444640F08060C8F80000FEF7A9F80546B6
:102FE0000DE0086840F40020EFE740F48010ECE7C3
:102FF000FEF79EF8401B022801D903208DE72068C8
:103000000001F5D5504688E7284402582DE9F047DD
:10301000454D044689464FF0000A2868C0438007A2
:103020000AD0414E283E306820F080503060FEF7D4
:103030007FF80746B04608E00120BDE8F08700BFF2
:10304000FEF776F8C01B022867D8D8F80000800089
:10305000F6D4208829684FF4FE0721F07C713E02E7
:1030600041EA00502860207AA389B4F804C04002E5
:103070002D4D2D495B1E227CACF1010C1835091D2C
:10308000A0F5007080B2521ECCF3080C07EA03438F
:1030900040EA0C00184306EA026210432860086800
:1030A000626920F44060104308600A68A06922F455
:1030B000007202430A60281D0A6822F480720A60C6
:1030C00002684FF6F873E4699A4342EAC402026068
:1030D0000868B9F1000F40F480720A6011D00868E6
:1030E000B9F1010F11D040F080700860D8F80000ED
:1030F000444640F08050C8F80000FEF719F8054635
:103100000DE0086840F48000EFE740F40000ECE7D1
:10311000FEF70EF8401B022801D903208DE7206836
:103120008000F5D5504688E7284402587047FEF7DE
:1031300005B8000030B59DB04C216846FDF716F982
:10314000202113A8FDF712F90220FEF7DBF8214831
:1031500000242149026842F44042026002680A6881
:1031600042F001020A60096801F001011B91016847
:103170008904FCD50220009040250495012103918B
:1031800004220B923C23CDE90904CDE90C300FABAE
:103190000E900C2183E8130068461294FFF718F98B
:1031A00008B172B6FEE708221A95CDE91625D301BB
:1031B00013AA3F200321CDE9185382E8130004210C
:1031C00013A8FEF7F5FE002801D072B6FEE71DB089
:1031D00030BD0000184802582C0400583348F0B5A0
:1031E000334A016841F470010160106800F00F007B
:1031F000072804D2106820F00F00C01D10602D4970
:1032000000202C4C10340B682B4D43F001030B6055
:1032100020600B682B400B60136803F00F03072B33
:1032200004D9136823F00F03DB1D1360214C234ADC
:103230001834234B261D371D20601E4C214D283489
:103240003060261D3860371D23603B1D35601C1D16
:103250003A60251D2E1D1860331D226028603260E3
:1032600018600A68134B184C22F4802260330A60FD
:10327000186020686FF30F00B0F1005F03D21349AC
:103280000120C1F808010B48D4300168C9040BD4EF
:10329000026843F2D2010E4B42F480520260196080
:1032A000016821F480510160F0BD000088ED00E06C
:1032B00000200052004402587FEDF6EA800201012E
:1032C000000202020000FF010010005C00800051BB
:1032D0000040005230B5416EB9B101680D4B03F1A9
:1032E00008048A688968C2F34262490F5D5C615CC8
:1032F0002D01B5FBF1F1A0F86A10995CA25C0901FF
:10330000B1FBF2F1A0F8681030BD0121A0F86A10FD
:10331000F8E700007C46000890F82810090706D559
:103320000168836B4A6822F400421A434A6090F8AD
:103330002810C90706D00168C36A4A6822F400321F
:103340001A434A6090F82810890706D50168036B74
:103350004A6822F480321A434A6090F828104907DC
:1033600006D50168436B4A6822F480221A434A60FA
:1033700090F82810C90606D50168C36B8A6822F444
:1033800080521A438A6090F82810890606D5016891
:10339000036C8A6822F400521A438A6090F828105D
:1033A000490611D50168436C4A6822F480121A4319
:1033B0004A60416CB1F5801F06D10168836C4A6890
:1033C00022F4C0021A434A6090F82810090606D574
:1033D0000168C26C486820F40020104348607047C0
:1033E0002DE9F84300250446C0F89050FDF7A0FEF3
:1033F0008046206820266FF07E470068000713D5BE
:103400000022434631042046009700F03FFA58B1AD
:10341000216851E8000F20F0800041E80002002AF6
:10342000F6D1C4F8886021E020680068400722D502
:10343000002243464FF480012046009700F026FA10
:10344000C8B1206850E8001F21F4907140E80012D4
:10345000002AF6D12068083050E8001F21F0010151
:1034600040E80012002AF5D1C4F88C60032084F8EB
:103470008450BDE8F883C4F88860C4F88C60E566C1
:103480002567002084F88450F3E7000010B5026837
:1034900052E8001F21F4907142E80013002BF6D18E
:1034A0000E4B0268083252E8001F194042E800142F
:1034B000002CF6D1C16E012908D1026852E8001F24
:1034C00021F0100142E80013002BF6D10021202248
:1034D000C0F88C20C166416710BD0000FEFFFFEF01
:1034E0002DE9F04304468068D84E87B0D84B216858
:1034F000D4E90427D4F81CC010430A68002547EA21
:103500000C073843324002430A602068E268416891
:1035100021F44051114341602268A1699A4201D0CF
:10352000206A01439768DFF82CC3CB4ECB4807EAEB
:103530000C070F4397602168676ACA6A22F00F027E
:103540003A43CA622268B2420ED1006800F03800E5
:10355000182873D047DCB8B3082879D010286FD169
:1035600078E028287ED17BE0BD498A4209D10068F5
:1035700000F00700062875D2DFE800F0546A6C6E90
:103580007072B8498A4209D1006800F00700062825
:1035900068D2DFE800F0475D5F616365B2498A4247
:1035A00009D1006800F0070006285BD2DFE800F0D0
:1035B0003A5052545658AD498A420BD1006800F037
:1035C000070006284ED200E010E0DFE800F02B41B3
:1035D00043454749A6498A420AD1006800F03800AD
:1035E000182839D0B7DD2028BBD13CE001203AE0D3
:1035F000A0498A4209D1006800F00700062831D2AC
:10360000DFE800F01026282A2C2E9B498A420BD195
:10361000006800F00700062824D2DFE800F0031954
:103620001B1D1F2100201EE09A421BD18B48001D4C
:10363000006800F00700062814D202E00CE007E062
:1036400010E0DFE800F0030507090B0D02200AE097
:10365000042008E0082006E0102004E0202002E01A
:10366000402000E080208549DFF814829A42854A94
:103670004FF400434FEA21174FF000064ED11028B7
:103680001AD006DC022809D004280BD008287CD1E7
:103690000DE020283ED0402877D13DE0FDF75CFECC
:1036A000014610E06846FDF769FE01990BE003A8AA
:1036B000FDF706FF049906E01068800605D510683E
:1036C000C0F3C100C140002970D0606A676838F853
:1036D000102007EB4703B1FBF2F0834255D8B0EB63
:1036E000073F52D8002308461946FCF7F5FD02466D
:1036F0007808130E120243EA012110183A4671416C
:103700000023FCF7E9FD604AA0F5407191423CD8E6
:1037100021688FE03946D8E71946D6E7D4F81CC0AF
:103720004FF6EF799C4546D1082819D005DC58B1F1
:1037300001280CD0042875D10DE0102815D02028C0
:1037400035D040286ED134E0FEF782FD01E0FEF76F
:1037500091FD014610E06846FDF710FE01990BE06F
:1037600003A8FDF7ADFE049906E01068800604D5B5
:103770001068C0F3C100C140C1B1636A606838F825
:103780001330B1FBF3F1490000E04BE001EB5001D5
:10379000B1FBF0F0A0F11001494543D84FF6F073AA
:1037A0002168C0F342021840104343E043E0394629
:1037B000E3E71946E1E7082819D005DC58B10128EC
:1037C0000CD004282ED10DE0102815D020282BD0A5
:1037D000402827D12AE0FEF73BFD01E0FEF74AFD35
:1037E000014610E06846FDF7C9FD01990BE003A80A
:1037F000FDF766FE049906E01068800604D510689F
:10380000C0F3C100C140B1B1636A606838F81330D9
:10381000B1FBF3F101EB5001B1FBF0F0A0F11001AD
:10382000494505D9012506E03946EDE71946EBE79C
:10383000216880B2C8600120A4F86A00A4F868007A
:1038400028466667A66707B0BDE8F083F369FFCF37
:10385000000C0058FFF4FF110010014054440258BE
:103860000044004000480040004C00400050004030
:103870000014014000780040007C00400090D0031C
:103880006446000800440258FFFC0F002DE9F04791
:10389000994617460D460446089E4FF0000833E04F
:1038A000701C31D0FDF744FCA0EB0900B04218D8E1
:1038B000BEB120680168490726D5802D24D0402D4F
:1038C00022D0C169C94309070DD4082505622046E5
:1038D000FFF7DCFDC4F89050012084F88480BDE837
:1038E000F0870320FBE7C069C04300050CD42168C2
:1038F0004FF4006008622046FFF7C8FD2021C4F89D
:10390000901084F88480ECE72068C06935EA0000F4
:1039100004D00020B842C3D00020E0E70120F9E73E
:10392000FEE700007CB5044600201D46164600292F
:103930000BD0491ECDE90041044B6A46294630466A
:1039400000F094F9009A002111707CBD9B4300089F
:10395000090700284FEA116104DB00F1E02080F83C
:103960000014704700F00F0000F1E02080F8141DF3
:1039700070470000000000002DED020B9FED340B9E
:10398000DDE90010C0F30A529FED331BA2F2FF32B3
:10399000142A2DDA9DED002B9FED2D0B002A32EE1F
:1039A000000B10DAB4EEC01BF1EE10FA49D2002879
:1039B000BCBF4FF00040002143DB50EA010218BFBA
:1039C000274813D13DE0274BD34000EA030C5CEAC3
:1039D000010C17D0B4EEC10BF1EE10FA31DD002866
:1039E00003DD4FF48011D14008449843002128E0C2
:1039F000332A07DCA2F114034FF0FF3C2CFA03F347
:103A0000194203D19DED000B02B070479DED002BD4
:103A100030EE420BB4EEC10BF1EE10FA11DD0028CE
:103A20000EDD142A08BF401C0AD0C2F134024FF048
:103A3000010C0CFA02F20A448A4238BF401C1146BB
:103A40009943CDE900109DED000B02B070470000D6
:103A50009C7500883CE4377E0000000000000000F8
:103A60000000F03FFFFF0F0000B52DED048BB0EE1E
:103A7000418BB0EE409B83B053EC182B51EC190BEB
:103A8000FCF76CFE00F07040B0F1004F17D018EE5C
:103A9000101A18EE900A8DED008B002918BF012135
:103AA000084320F00040C0F17F6000F1E040C00F0B
:103AB00001BFB0EE480B03B0BDEC048B00BDB0EE0F
:103AC000490B03B0BDEC048B00BD02E008C8121F17
:103AD00008C1002AFAD170477047002001E001C1F7
:103AE000121F002AFBD170472DE9FF5F82B0002131
:103AF000DDE90430020DDDF840B0034318D044F690
:103B00001050A2F2FF3242431514119801281FD021
:103B1000A5EB0B00401C5FEA000A4FF000064E4F79
:103B2000DFF83891B046504615D5CAF1000413E0CD
:103B3000119801244AA3012801D16FEA0B010298D0
:103B4000119AC0E90031C0E9024206B0BDE8F09F19
:103B5000CBF10000DFE704460021404A491842EB60
:103B60000450CDE9001012E0E00707D032463B4692
:103B700040464946FCF7E1FC8046894632463B46D2
:103B800010461946FCF7D9FC06460F466410002C77
:103B9000EAD1DDE90401DDE90023BAF1000F06DA1C
:103BA000FCF7CBFC42464B46FCF7C7FC05E0FCF7B4
:103BB00036FD42464B46FCF732FD04460E460022D7
:103BC000284BFCF7B3FD03D84FF0FF30014607E068
:103BD0000022254B20463146FCF708FCFCF78EFD01
:103BE000102409E0002C0ADB0A220023FCF774FBF6
:103BF000039B30321A55641E50EA0102F2D1641C54
:103C0000039AC4F111031444119A012A03D001222A
:103C100008430DD10AE0084304D000204FF0110BF7
:103C2000119072E7A3EB0B056D1E0DE05B4504DD03
:103C30004FF0000205F1010504E003DA4FF0000245
:103C4000A5F10105002AECD002981199C0E90231D2
:103C5000C0E9004579E70000000014400000F03F93
:103C6000300000000000F0430000E03F2DE9FF4F6E
:103C700095B09B468946064600250FE2252877D158
:103C800000242746F84A0121059400E0044316F871
:103C9000013F203B01FA03F01042F7D130782A2887
:103CA00011D06FF02F033078A0F13002092A16D816
:103CB000059A44F0020402EB820203EB4202104434
:103CC000761C0590EFE759F8042B0592002A03DAD9
:103CD000504244F40054059044F00204761C3078BD
:103CE0002E2816D116F8010F44F004042A280DD00E
:103CF0006FF02F023078A0F13003092B09D807EBC1
:103D0000870302EB4303C718761CF3E759F8047BDB
:103D1000761C30786C280FD006DC4C2817D0682829
:103D20000DD06A2814D104E0742810D07A280FD15D
:103D30000DE044F400140AE044F4801401E044F47B
:103D400040147278824202D104F58014761C761CED
:103D5000307866280BD013DC582877D009DC00288F
:103D600075D04528F6D04628F4D047281AD19DE1D1
:103D700018E0632835D0642879D0652812D195E100
:103D8000702873D008DC6728F1D069286FD06E28BE
:103D90000DD06F2806D1B5E073282CD0752875D0CA
:103DA000782874D05A46179990476D1C75E1C4F372
:103DB0000250022809D003280DD0D9F80010042899
:103DC0000DD00D6009F1040967E1D9F80010EA1778
:103DD000C1E90052F6E7D9F800100D80F2E70D7046
:103DE000F0E719F8041B8DF8001000208DF8010091
:103DF000EA46012003E059F804AB4FF0FF306107B9
:103E00004FF0000102D40DE008F101018846B942EB
:103E10000FDA8045F8DB1AF808100029F4D108E021
:103E200008F1010188468142FADB1AF808100029DE
:103E3000F6D105985B46A0EB080721463846179A4D
:103E400000F094FA284400EB080507E04DE029E172
:103E50000DE01AF8010B5A4617999047B8F101087E
:103E6000F7D25B4621463846179A13E142E00A2210
:103E70000092C4F302524FF0000A022A08D059F807
:103E800004CB032A4FEAEC710AD00DE029E02AE0C6
:103E900009F1070121F00702F2E802C1914609E0A9
:103EA0000FFA8CFC4FEAEC71042A03D14FFA8CFC18
:103EB0004FEAEC71002907DA0A460021DCF1000C18
:103EC00061EB02012D2202E0220504D52B228DF8A0
:103ED0000420012203E0E20701D02022F7E7904608
:103EE00059E00A2102E010220DE010214FF0000AF3
:103EF00000910BE010224FF0000A44F00404082760
:103F0000009203E008224FF0000A0092C4F302522C
:103F1000022A05D059F804CB0021032A08D009E071
:103F200009F1070121F00702F2E802C1914605E01C
:103F30001FFA8CFC042A01D10CF0FF0C4FF0000892
:103F4000220728D5702806D0009B83F0100353EA7F
:103F50000A0305D00EE040228DF80420012208E07B
:103F60005CEA010206D030228DF804208DF80500AD
:103F700002229046009B83F0080353EA0A030AD109
:103F80005CEA010201D1620705D530228DF80420D8
:103F90004FF001087F1E582804D034A003900EA8CB
:103FA00002900DE036A0F9E753466046009AFCF710
:103FB00093F984460398825C0298401E0290027036
:103FC0005CEA0100F0D1029806A9081A00F1200A63
:103FD000600702D524F4803400E00127574502DD54
:103FE000A7EB0A0000E0002000EB0A010090059812
:103FF0004144401A0590E00306D45B462146179AD7
:10400000059800F0B3F90544002706E001A85A46D8
:10401000C05D179990476D1C7F1C4745F6DBE00398
:104020000CD55B462146179A059800F09FF9054488
:1040300004E030205A46179990476D1C0099481E9D
:1040400000900029F5DC08E0029802995A460078B1
:10405000491C0291179990476D1CBAF10001AAF111
:10406000010AF1DC65E1000009280100303132333A
:1040700034353637383961626364656600000000A4
:10408000303132333435363738394142434445468E
:104090000000000000F058F90544761C3078002834
:1040A0007FF4ECAD19B02846BDE8F08F620700D46C
:1040B000062709F1070222F0070CFCE80223E1467B
:1040C00003F000485FEA080C02D00FF2702C0DE0FC
:1040D0005FEA045C02D50FF2682C07E05FEAC47C5B
:1040E00002D00FF2602C01E0AFF2700C4FF0FF38FD
:1040F00023F00043CDF850C065280CD006DC4528DD
:1041000009D046281DD047283DD13DE0662818D06B
:1041100067287ED138E00021112F01DB112000E05B
:10412000781CCDE9000106A90EA8FFF7DDFCDDE94A
:104130000F010E9A03910021009207F1010A0491E8
:104140004DE04FF000400097CDE9011006A90EA800
:10415000FFF7CAFCDDE90F0203920E9B11990022C2
:10416000DDF80CA00093049211B9791C00EB010A50
:10417000B7EB0A0004D4C0F1FF3007F1010A049044
:10418000AAEB0700019044E0012F00DA012700218B
:10419000112F01DD112000E03846CDE9000106A90C
:1041A0000EA8FFF7A1FCDDE90F010E9A0391002193
:1041B00004910092BA4621070CD40399514500DAC4
:1041C0008A46BAF1010F05DD009AAAF10101515C9E
:1041D000302908D0B84202DA10F1040F06DA0121C2
:1041E000CDE9011015E0AAF10101E9E7002805DC9D
:1041F000049901440491AAEB000102E0411C5145DD
:1042000000DD8A460499401A401C01904FF000409E
:104210000290200704D40198504501DBCDF80480BA
:1042200000208DF84F0002980DF14F07B0F1004FBC
:1042300025D02B200E9002984FF0020800280CDAAF
:10424000404202902D200E9007E00A210298FCF7D0
:1042500098F83031029007F8011DB8F10001A8F17B
:104260000108F2DC02980028EFD1791E0E98087040
:10427000307800F0200040F0450007F8020D12A849
:10428000C01B00F107081498007800B1012000EB72
:104290000A01019801EBE07105984144401A401E63
:1042A0000590E00306D45B462146179A059800F076
:1042B0005DF805441498007818B15A46179990474C
:1042C0006D1CE00324D55B462146179A059800F043
:1042D0004DF805441CE00498002807DBDDE90301E4
:1042E000884203DD0098405C179901E0179930205F
:1042F0005A469047049805F10105401C0490019826
:10430000401E019004D12E205A46179990476D1CEB
:10431000BAF10001AAF1010ADDDC05E017F8010B92
:104320005A46179990476D1CB8F10001A8F1010891
:10433000F4DC5B462146179A0598ABE62D00000099
:104340002B000000200000002DE9F041044600256C
:104350001E461746880404D405E039462020B0479D
:104360006D1C641EF9D52846BDE8F0812DE9F041A9
:10437000044600251E469046C80301D5302700E0BC
:104380002027880404D505E041463846B0476D1C17
:10439000641EF9D52846BDE8F0814A68002A06D097
:1043A0000A68531C0B6010704868401E48607047D4
:1043B000006804490840B0F1105F01D00020704748
:1043C000012070470000FE2F0FB44FF4807100B53C
:1043D000C1B043AB6846429AFFF7A4FA82B20448E0
:1043E00040F6FF736946FEF7D7FB41B05DF814FB5A
:1043F000340000241FB50024009401940294039417
:10440000FCF720FF01208DF80C001F218DF808100B
:1044100087228DF809208DF80D008DF80000684680
:104420008DF80A408DF80E408DF8014001948DF80A
:104430000B408DF80F40FCF7D7FE0420FCF710FF6F
:10444000FCF784FEFEF776FEFEF7C4FCFEF7E0FC08
:10445000FEF714FD17A0FFF7B7FF1CA0FFF7B4FF8E
:1044600000F0B0F81EA0FFF7AFFF1EA0FFF7ACFFF3
:10447000274C28A06168FFF7A7FFA1682DA0FFF7D0
:10448000A3FFE16833A0FFF79FFF216839A0FFF782
:104490009BFF21693FA0FFF797FF12A0FFF794FF52
:1044A0000FA0FFF791FF43A0FFF78EFFFEF710FC70
:1044B000FEE70000426F6F744C6F616465722052BA
:1044C000756E6E696E672E2E2E0D0A005265616440
:1044D00020436F6E6669672E2E2E0D0A00000000C5
:1044E0000D0A00002D2D2D2D2D2D2D2D2D2D2D2D99
:1044F0002D2D2D2D2D2D2D2D2D2D2D2D2D2D2D2DEC
:104500002D2D2D2D2D2D2D2D2D2D0D0A00000000D2
:104510000C0000247C20626F6F74203A09307825EB
:1045200030385820202020202020202020207C0DE2
:104530000A0000007C2061707031203A0930782533
:1045400030385820202020202020202020207C0DC2
:104550000A0000007C2061707032203A0930782512
:1045600030385820202020202020202020207C0DA2
:104570000A0000007C2063757272203A09307825A9
:1045800030385820202020202020202020207C0D82
:104590000A0000007C2063666720203A09307825F5
:1045A00030385820202020202020202020207C0D62
:1045B0000A000000436865636B204170702E2E2E48
:1045C0000D0A00004FF0016010B5FCF7CBFA05486A
:1045D000142203494068BDE8104000F005B800000F
:1045E0000C0000240000002410B503689BB2A3F562
:1045F0002A44AA3C02D04FF0FF3010BD001DFCF74A
:10460000E7F9002010BD000010B586B04AF6AA20D8
:1046100014210A46ADF8000001A8ADF802100D49BA
:10462000FBF78BFE0C4C182269462068FCF744FA15
:10463000B6EE080BFFF7A0F994ED001A9FED072BDB
:10464000B8EE411B00EE021BBCEEC10B84ED000A6C
:1046500006B010BD0C000024000000240000000083
:1046600000004040010002000400060008000A00AB
:104670000C00100020004000800000010101010337
:104680000701000008040204080101010000000005
:10469000010203040102030406070809BC460008DE
:1046A0000000002434000000CA3A0008F046000868
:1046B0003400002444050000DA3A00080000100825
:1046C00000001008000000000000000000000008CA
:1046D000000002080000120800001008010000009D
:1046E00010000000000000000090D0030090D003F4
:040000050800029954
:00000001FF
